:020000040800F2
:1000000010040020C50100081B02000813020008AC
:10001000170200080D020008190300080000000084
:10002000000000000000000000000000470200087F
:100030001102000800000000450200084902000803
:10004000DF010008DF010008DF010008DF01000810
:10005000DF010008DF010008DF010008DF01000800
:10006000DF010008DF010008DF010008DF010008F0
:10007000DF010008DF010008DF010008DF010008E0
:10008000DF010008DF010008DF010008DF010008D0
:10009000DF010008DF010008DF010008DF010008C0
:1000A000DF010008DF010008DF010008DF010008B0
:1000B000DF010008DF010008DF010008DF010008A0
:1000C000DF010008DF010008DF010008DF01000890
:1000D000DF010008DF010008DF010008DF01000880
:1000E000DF010008DF010008DF010008DF01000870
:1000F000DF010008DF010008DF010008DF01000860
:10010000DF010008DF010008DF010008DF0100084F
:10011000DF010008DF010008DF010008DF0100083F
:10012000DF010008DF010008DF010008DF0100082F
:10013000DF010008DF010008DF010008DF0100081F
:10014000DF010008DF010008DF010008DF0100080F
:10015000DF010008DF010008DF010008DF010008FF
:10016000DF010008DF010008DF010008DF010008EF
:10017000DF010008DF010008DF01000800000000C7
:10018000DF010008DF010008DF010008DF010008CF
:10019000DF010008DF010008DF01000800000000A7
:1001A000DF010008DF010008DF010008DFF810D0E0
:1001B00000F01AF8004800475D050008AFF3008022
:1001C000100400200648804706480047FEE7FEE787
:1001D000FEE7FEE7FEE7FEE7FEE7FEE7FEE7FEE7F7
:1001E00051020008AD010008064C074D06E0E0682A
:1001F00040F0010394E8070098471034AC42F6D36E
:10020000FFF7D8FF600B0008800B000800BFFEE777
:10021000704700BFFEE700BFFEE7704710B500283B
:1002200007DA0A07140E054A00F00F031B1FD45407
:1002300003E00A07130E024A135410BD18ED00E044
:1002400000E400E07047704710B500F099F810BD69
:1002500008B52D48006840F470002B4908602B4811
:10026000006840F00100294908602848083000680B
:1002700040F080002549083108600020009002E02D
:100280000098401C00904CF2503100988842F7D3FF
:100290001E480830006840F090001C490831086092
:1002A0000020009002E00098401C00904CF2503179
:1002B00000988842F7D315480830006820F0030002
:1002C00012490831086011480068114908400F4977
:1002D00008600846006820F48020086000200B4970
:1002E0000831086000BF0948083000680020002875
:1002F000F9D108480549091D0860002003490C315F
:10030000086000F081FA08BD88ED00E00038024086
:10031000FFFFF6FE1030002400BFFEE7014A02494D
:1003200000F013B8990300080800002002E008C894
:10033000121F08C1002AFAD170477047002001E05F
:1003400001C1121F002AFBD170472DE9F04116466A
:100350000F460446002503E03946B047641C6D1C77
:1003600020780028F8D12846BDE8F08103490860CC
:1003700000BF024909680029FBD170470000002036
:100380000448006820B103480068401E0149086025
:10039000704700000000002070B504460D46E0B232
:1003A00000F0B6FB204670BDF0B503461C6A5D6ADE
:1003B00000200DE00126864016403EB187000F2642
:1003C000BE40B443860001FA06F63443461CB0B280
:1003D0000828EFD3082011E00126864016405EB1C0
:1003E000A0F10806B7000F26BE40B543A0F10806ED
:1003F000B60001FA06F63543461CB0B21028EBD31E
:100400001C625D62F0BDC16270470246106908401F
:1004100008B1012070470020FCE7F0B504460D4606
:1004200016462168E268002019E0012787401F4036
:100430009FB14FEA400C032707FA0CF7B943470076
:1004400005FA07F739434FEA400C032707FA0CF780
:10045000BA43470006FA07F73A43471CB8B21028D8
:10046000E3D32160E260F0BDF0B50C461546012CE7
:1004700003D146681E43466002E046689E434660DC
:10048000826800210DE001268E401E403EB14F00E3
:100490000326BE40B2434E0005FA06F632434E1C18
:1004A000B1B21029EFD38260F0BD000010B54FF457
:1004B000406000F0F5F80123022200210148FFF717
:1004C000ACFF10BD0000024010B501210F48FFF73E
:1004D0009CFF012819D11420FFF748FF01210B4888
:1004E000FFF793FF012810D180210948FFF78BFF08
:1004F00008A0FFF713FF00BF01210448FFF785FFA5
:100500000128F9D007A0FFF709FF10BD0000024045
:10051000000C02406B6579207072657373210D0ABF
:10052000000000006B65792072656C656173652160
:100530000D0A000010B540F6034000F0B1F880232A
:10054000002201210448FFF768FF802302220021D6
:100550000148FFF789FF10BD000C024000BF00BF3B
:1005600000F056F9FFF7E6FFFFF7A0FF4FF4165033
:1005700000F070FA01E0FFF7A7FFFCE72DE9F04F6C
:100580008CB0064600200A903EA090E8004CC0685F
:10059000CDE905BECDF810A007900FF2EC0ADAE91C
:1005A000000ACDE9020A0FF2E00ADAE9000ACDE911
:1005B000000A38480068C0F381000B900B9820B106
:1005C000012804D0022828D103E0334927E0334929
:1005D00025E03048001F006800F03F072D48001F4D
:1005E0000068C0F3881C2B48001F0068C0F301405E
:1005F000401C4FEA40092748001F006800F48008AB
:10060000B8F5800F01D1254B00E0234BB3FBF7F089
:1006100000FB0CF0B0FBF9F101E01F4900BF00BF87
:100620001C480068C0F3031404A8055D21FA05F214
:1006300018480068C0F3822402A8055D22FA05F07C
:10064000099014480068C0F342341DF8045022FA9F
:1006500005F0089036B1012E06D0022E06D0032EEA
:100660000AD106E00A9108E00A9206E009980A9089
:1006700003E008980A9000E000BF00BF0A980CB0A1
:10068000BDE8F08F0000000000000000010203043C
:1006900006070809083802400024F40040787D016C
:1006A000074A02EB9011D1F8001800F01F03012255
:1006B0009A401143024B03EB9012C2F800187047A6
:1006C00000300240074A02EB9011D1F8001800F008
:1006D0001F0301229A409143024B03EB9012C2F890
:1006E0000018704700300240074A02EB9011D1F821
:1006F000001800F01F0301229A401143024B03EB44
:100700009012C2F80018704700300240002000210B
:100710003A4A126842F48032384B1A6000BF401CDB
:10072000364A126802F4003119B94FF6FF7290424E
:10073000F5D1324A126802F400320AB900BFFEE76E
:100740002E4A4032126842F080522C4B40331A60DD
:100750002B4A126842F44042294B1A60274A083259
:100760001268264B08331A601A46126842F4004297
:100770001A601A46126842F4A0521A60214A1B1FDE
:100780001A601A1F126842F080721B1F1A6000BFA5
:100790001A4A126802F00072002AF9D0184A126848
:1007A00042F48032164B1A6000BF154A526802F4B8
:1007B0008032002AF9D0124A126842F40032104BFB
:1007C0001A6000BF0E4A526802F40032002AF9D0C3
:1007D0000A4A0832126822F00302084B08331A60F2
:1007E0001A46126842F002021A6000BF034A083239
:1007F000126802F00802002AF8D070470038024060
:10080000007000401964400910B5FFF77FFF10BD6C
:1008100010B5124800684FF47A71B0FBF1F4601E15
:10082000B0F1807F01D301200FE0601E4FF0E02186
:1008300048610F214FF0FF30FFF7F0FC00204FF030
:10084000E021886107200861002008B100BFFEE7B1
:100850000021481EFFF7E2FC10BD0000040000204C
:100860002DE9F04704460D460027B846B946002654
:100870003349601A8C4235D00CDC32482044E8B150
:10088000B0F5806F1FD0B0F5006F21D0B0F5406F8C
:1008900032D122E0B0F5806F29D0B0F5184F03D0E7
:1008A000B0F51C4F28D104E00320FFF767FE074690
:1008B00023E00320FFF762FE07461EE00220FFF759
:1008C0005DFE074619E00220FFF758FE074614E0D8
:1008D0000220FFF753FE07460FE00220FFF74EFE0F
:1008E00007460AE00220FFF749FE074605E002201E
:1008F000FFF744FE074600E000BF00BFE06800F4D9
:10090000004070B1780000EB5500B0FBF5F64FF6F3
:10091000F07006EA0008C6F3420948EA0900A06040
:100920000CE007EB5500B0FBF5F64FF6F07006EA69
:10093000000806F00F0948EA0900A060BDE8F0874A
:100940000078004000BCFFBFC1F30802426070475E
:1009500010B504463349601A8C424DD00CDC324845
:100960002044E0B1B0F5806F22D0B0F5006F31D0F7
:10097000B0F5406F52D136E0B0F5806F45D0B0F59C
:10098000184F03D0B0F51C4F48D11AE040F60410C0
:10099000FFF7AAFE40F60410FFF794FE3FE040F692
:1009A0001100FFF7A1FE40F61100FFF78BFE36E0C5
:1009B00040F61200FFF798FE40F61200FFF782FEA5
:1009C0002DE040F60510FFF78FFE40F60510FFF70B
:1009D00079FE24E040F61300FFF786FE40F6130090
:1009E000FFF770FE1BE040F61400FFF77DFE40F6B7
:1009F0001400FFF767FE12E040F61E00FFF774FEDA
:100A000040F61E00FFF75EFE09E040F61F00FFF70C
:100A10006BFE40F61F00FFF755FE00E000BF00BF71
:100A200010BD00000078004000BCFFBFC16841F469
:100A30000051C160704710B5024602EB911000688A
:100A400001F01F040123A340184008B1012010BD8C
:100A50000020FCE710B504464FF44060FFF720FE8D
:100A60004FF44060FFF71CFE41F20410FFF718FE40
:100A70004FF4007207212048FFF796FC4FF4806284
:100A800007211D48FFF790FC4FF40073012202215B
:100A90001948FFF7C2FC4FF4806301220221164877
:100AA000FFF7BBFC4FF40073022200211248FFF74E
:100AB000DBFC4FF48063022200210F48FFF7D4FCD7
:100AC0000E48FFF745FF21460C48FFF7C9FE0021FD
:100AD0000A4800F015F80021084800F039F8002114
:100AE000064800F025F80548FFF7A0FF0821034855
:100AF00000F026F810BD0000000002400010014088
:100B0000C26822F4C062C260C2680A43C260704711
:100B100010B5044621460548FFF716FF00BF072120
:100B20000248FFF788FF0028F9D010BD00100140EF
:100B3000026922F44052026102690A43026170476D
:100B40000A460021C16821F008011143C1607047C5
:100B5000C26822F48052C260C2680A43C260704711
:100B6000800B0008000000200C0000002C0300088F
:100B70008C0B00080C000020040400003C0300085B
:0C0B80000000000000C2EB0B00000000B1
:04000005080001AD41
:00000001FF
