:020000040800F2
:1000000010140020C50100081B020008130200089C
:10001000170200080D020008E503000800000000B8
:10002000000000000000000000000000470200087F
:100030001102000800000000450200084902000803
:10004000DF010008DF010008DF010008DF01000810
:10005000DF010008DF010008DF010008DF01000800
:10006000DF010008DF010008DF010008DF010008F0
:10007000DF010008DF010008DF010008DF010008E0
:10008000DF010008DF010008DF010008DF010008D0
:10009000DF010008DF010008DF010008DF010008C0
:1000A000DF010008DF010008DF010008DF010008B0
:1000B000DF010008DF010008DF010008DF010008A0
:1000C000DF010008DF010008DF010008DF01000890
:1000D000DF01000885030008DF010008DF010008D8
:1000E000DF010008DF010008DF010008DF01000870
:1000F000DF010008DF010008DF010008DF01000860
:10010000DF010008DF010008DF010008DF0100084F
:10011000DF010008DF010008DF010008DF0100083F
:10012000DF010008DF010008DF010008DF0100082F
:10013000DF010008DF010008DF010008DF0100081F
:10014000DF010008DF010008DF010008DF0100080F
:10015000DF010008DF010008DF010008DF010008FF
:10016000DF010008DF010008DF010008DF010008EF
:10017000DF010008DF010008DF01000800000000C7
:10018000DF010008DF01000825030008DF01000887
:10019000DF010008DF010008DF01000800000000A7
:1001A000DF010008DF010008DF010008DFF810D0E0
:1001B00000F01AF80048004711060008AFF300806D
:1001C000101400200648804706480047FEE7FEE777
:1001D000FEE7FEE7FEE7FEE7FEE7FEE7FEE7FEE7F7
:1001E00051020008AD010008064C074D06E0E0682A
:1001F00040F0010394E8070098471034AC42F6D36E
:10020000FFF7D8FFE41700080418000800BFFEE756
:10021000704700BFFEE700BFFEE7704710B500283B
:1002200007DA0A07140E054A00F00F031B1FD45407
:1002300003E00A07130E024A135410BD18ED00E044
:1002400000E400E07047704710B500F0F3F810BD0F
:1002500008B53048006840F470002E4908602E4808
:10026000006840F001002C49086000BF2A4800687F
:1002700000F002000028F9D000BF274808300068CD
:1002800040F080002449083108600020009002E01E
:100290000098401C009000985028F9D31E48083060
:1002A000006840F090001C49083108600020009070
:1002B00002E00098401C009000985028F9D300BF3D
:1002C00015480830006820F0030013490831086021
:1002D00011480068114908400F4908600846006845
:1002E00020F48020086000200B490831086000BF1E
:1002F00009480830006800200028F9D1084806495C
:10030000091D0860002004490C31086000F018FE47
:1003100008BD000088ED00E000380240FFFFF6FE57
:100320001030002410B51149114801F016FA58B1E7
:100330000F4801F023F9C1B20E4802880088401C22
:100340000C4B18800C4881540C49094801F005FAFF
:1003500001280AD1064801F011F900200649054A92
:100360001288885401200649087010BD0503050055
:1003700000780040080000200C0000200403040066
:100380000A00002010B51149114801F0E6F958B1F2
:100390000F4801F0F3F8C1B20E4802880088401CF3
:1003A0000C4B18800C4881540C49094801F0D5F9D0
:1003B00001280AD1064801F0E1F800200649054A63
:1003C0001288885401200649087010BD05030500F5
:1003D00000100140080000200C000020040304006D
:1003E0000A00002000BFFEE702E008C8121F08C193
:1003F000002AFAD170477047002001E001C1121FA6
:10040000002AFBD17047000010B540F6054000F00F
:10041000D1FC4FF4807302220121054800F049F815
:100420004FF4807302220021014800F069F810BDEA
:10043000001402400448006820B103480068401ED0
:10044000014908607047000000000020F0B5034635
:100450001C6A5D6A00200DE00126864016403EB110
:1004600087000F26BE40B443860001FA06F63443E7
:10047000461CB0B20828EFD3082011E001268640C0
:1004800016405EB1A0F10806B7000F26BE40B54386
:10049000A0F10806B60001FA06F63543461CB0B2D4
:1004A0001028EBD31C625D62F0BD816270478161F0
:1004B0007047F0B504460D4616462168E2680020F4
:1004C00019E0012787401F409FB14FEA400C0327E6
:1004D00007FA0CF7B943470005FA07F739434FEA23
:1004E000400C032707FA0CF7BA43470006FA07F750
:1004F0003A43471CB8B21028E3D32160E260F0BD54
:10050000F0B50C461546012C03D146681E434660E3
:1005100002E046689E434660826800210DE00126A5
:100520008E401E403EB14F000326BE40B2434E00F7
:1005300005FA06F632434E1CB1B21029EFD38260A1
:10054000F0BD000010B540F6044000F033FC20235D
:10055000012200210648FFF7ACFF40F6014000F001
:1005600029FC2023012200210248FFF7A2FF10BD31
:10057000001002400004024010B54FF4406000F04B
:1005800019FC4FF48053022201211D48FFF791FF0F
:100590004FF48053022200211948FFF7B1FF40F6C3
:1005A000064000F007FC8023022201211548FFF7D6
:1005B00080FF8023022200211248FFF7A1FF40F6AE
:1005C000044000F0F7FB0423022201210E48FFF74C
:1005D00070FF0423022200210B48FFF791FF40F631
:1005E000014000F0E7FB0823022201210748FFF742
:1005F00060FF0823022200210448FFF781FF10BD9D
:1006000000000240001802400010024000040240B6
:1006100000F09AFCFFF7B0FFFFF7F6FEFFF792FF3E
:1006200000F022F86421C82000F024FA6421C820D8
:1006300000F0ACFA4FF4165001F01AF8012000F067
:1006400015F9012000F0E0F8012000F075F9012013
:1006500000F040F904E04FF480710248FFF727FFF3
:10066000F9E700000014024010B540F6014000F028
:10067000A1FB1023002201216048FFF71AFF10237D
:10068000022200215D48FFF73BFF10215B48FFF786
:100690000CFF10225A495948FFF7D8FE4FF440602A
:1006A00000F088FB8023002201215648FFF701FF5C
:1006B0008023022200215348FFF722FF8021514866
:1006C000FFF7F3FE80224E494E48FFF7BFFE4FF47E
:1006D000406000F06FFB0823002201214948FFF72A
:1006E000E8FE0823022200214648FFF709FF0821FF
:1006F0004448FFF7DAFE0822D1064248FFF7A6FE7B
:100700004FF4406000F056FB0423002201213D48D5
:10071000FFF7CFFE0423022200213A48FFF7F0FE44
:1007200004213848FFF7C1FE042211073548FFF7BE
:100730008DFE40F6014000F03DFB012300221946EA
:100740002E48FFF7B6FE0123022200212B48FFF7B7
:10075000D7FE01212948FFF7A8FE01222849274892
:10076000FFF774FE40F6014000F024FB0223002254
:1007700001212248FFF79DFE02231A4600211F484F
:10078000FFF7BEFE02211D48FFF78FFE02221C4923
:100790001A48FFF75BFE4FF4406000F00BFB0123AB
:1007A000002219461748FFF784FE01230222002188
:1007B0001448FFF7A5FE01211248FFF776FE01223B
:1007C00091071048FFF742FE4FF4406000F0F2FA44
:1007D0000223002201210B48FFF76BFE02231A4679
:1007E00000210848FFF78CFE02210648FFF75DFE56
:1007F000022251070348FFF729FE10BD0004024002
:10080000000400400000024010B504469CB10123E2
:10081000002219461248FFF74CFE012011490860DA
:100820000223002201210E48FFF743FE01200E495A
:10083000C1F8840212E00123002219460848FFF79C
:1008400038FE0020074908600223002201210448E5
:10085000FFF72FFE00200449C1F8840210BD0000FC
:1008600000040240808240420080404210B50446AD
:100870009CB11023002201211248FFF71AFE01202B
:10088000114908608023002201211048FFF711FE62
:1008900001200F49C1F89C0212E01023002201211F
:1008A0000848FFF706FE0020074908608023002261
:1008B00001210648FFF7FDFD00200549C1F89C0213
:1008C00010BD00000004024090824042000002403F
:1008D0000000404210B504469CB101230022194695
:1008E0001248FFF7E6FD01201149086002230022AB
:1008F00001210E48FFF7DDFD01200E49C1F88402F9
:1009000012E00123002219460848FFF7D2FD00201B
:10091000074908600223002201210448FFF7C9FDAE
:1009200000200449C1F8840210BD0000000002400C
:10093000800240420000404210B504469CB10823AA
:10094000002201211248FFF7B4FD0120114908607F
:100950000423002201210E48FFF7ABFD01200E49C0
:10096000C1F8880212E00823002201210848FFF79D
:10097000A0FD00200749086004230022012104484B
:10098000FFF797FD00200449C1F8880210BD000060
:10099000000002408C024042000040422DE9F0413C
:1009A00003460D46164600240027A0462A48006844
:1009B00000F4E060B0F5E06F03D100BF4FF0040831
:1009C00030E02548006800F4E060B0F5C06F03D166
:1009D00001274FF0030825E01F48006800F4E0609D
:1009E000B0F5A06F02D10227B8461BE01A48006894
:1009F00000F4E060B0F5806F03D103274FF00108E9
:100A000010E01548006800F4E060B0F5407F03D1C5
:100A100004274FF0000805E04FF4A06000F020F834
:100A20000227B846C7F1040005FA00F4C8F1040132
:100A30000F20C8403040044324010848C45403F048
:100A40001F01012088405911890001F1E021C1F8FE
:100A50000001BDE8F08100000CED00E000E400E0E2
:100A600002490143024A1160704700000000FA0584
:100A70000CED00E030B587B005460C464FF48050D1
:100A800000F098F94FF0807000F0CAF94FF0804004
:100A900000F0ECFB681E80B2ADF80C00601E059003
:100AA0000020ADF80E00ADF81000ADF812008DF882
:100AB000180003A94FF0804000F0A0FC0120ADF821
:100AC00000000020ADF804006A4600214FF080408D
:100AD00000F068FA6A460121880700F063FA6A4666
:100AE0000221480700F05EFA6A4603214FF0804079
:100AF00000F058FA602200214FF0804000F048FBDF
:100B0000002211464FF0804000F06FFB002211469A
:100B10004FF0804000F07CFB60220121880700F04C
:100B200037FB00220121880700F05FFB0022012132
:100B3000880700F06DFB60220221480700F028FBC7
:100B400000220221480700F050FB00220221480742
:100B500000F05EFB602203214FF0804000F018FBA4
:100B6000002203214FF0804000F03FFB00220321D0
:100B70004FF0804000F04CFB4FF0804000F00CFA4A
:100B80004FF0804000F034FC07B030BD30B587B086
:100B900005460C4641F2010000F00CF94FF0807060
:100BA00000F03EF9394800F061FB681E80B2ADF8F4
:100BB0000C00601E05900020ADF80E00ADF810008E
:100BC000ADF812008DF8180003A9304800F016FCAB
:100BD0000120ADF800000020ADF804006A460021B5
:100BE0002A4800F0DFF96A460121284800F0DAF9C6
:100BF0006A460221254800F0D5F96A4603212348B8
:100C000000F0D0F960220021204800F0C1FA002253
:100C100011461E4800F0E9FA002211461B4800F078
:100C2000F7FA60220121194800F0B2FA00220121EE
:100C3000164800F0DAFA00220121144800F0E8FA20
:100C400060220221114800F0A3FA002202210F487D
:100C500000F0CBFA002202210C4800F0D9FA602201
:100C600003210A4800F094FA00220321074800F00B
:100C7000BCFA00220321054800F0CAFA034800F03C
:100C80008BF9024800F0B4FB07B030BD000400400F
:100C90002DE9F04F8CB0064600200A903EA090E867
:100CA000004CC068CDE905BECDF810A007900FF24A
:100CB000EC0ADAE9000ACDE9020A0FF2E00ADAE901
:100CC000000ACDE9000A38480068C0F381000B90A3
:100CD0000B9820B1012804D0022828D103E0334921
:100CE00027E0334925E03048001F006800F03F0747
:100CF0002D48001F0068C0F3881C2B48001F0068A7
:100D0000C0F30140401C4FEA40092748001F00681B
:100D100000F48008B8F5800F01D1254B00E0234B8B
:100D2000B3FBF7F000FB0CF0B0FBF9F101E01F4959
:100D300000BF00BF1C480068C0F3031404A8055D91
:100D400021FA05F218480068C0F3822402A8055D64
:100D500022FA05F0099014480068C0F342341DF8E7
:100D6000045022FA05F0089036B1012E06D0022E6A
:100D700006D0032E0AD106E00A9108E00A9206E0A6
:100D800009980A9003E008980A9000E000BF00BFAD
:100D90000A980CB0BDE8F08F0000000000000000D1
:100DA0000102030406070809083802400024F40081
:100DB00040787D01074A02EB9011D1F8001800F04D
:100DC0001F0301229A401143024B03EB9012C2F819
:100DD0000018704700300240074A02EB9011D1F82A
:100DE000001800F01F0301229A409143024B03EBCD
:100DF0009012C2F80018704700300240074A02EB18
:100E00009011D1F8001800F01F0301229A401143FD
:100E1000024B03EB9012C2F80018704700300240FA
:100E20006FF08071884205D1054909680140044A84
:100E3000116004E0024909680143014A11607047EA
:100E40008C380240002000213A4A126842F4803275
:100E5000384B1A6000BF401C364A126802F4003159
:100E600019B94FF6FF729042F5D1324A126802F476
:100E700000320AB900BFFEE72E4A4032126842F043
:100E800080522C4B40331A602B4A126842F4404285
:100E9000294B1A60274A08321268264B08331A6019
:100EA0001A46126842F400421A601A46126842F466
:100EB000A0521A60214A1B1F1A601A1F126842F0C2
:100EC00080721B1F1A6000BF1A4A126802F000727B
:100ED000002AF9D0184A126842F48032164B1A6080
:100EE00000BF154A526802F48032002AF9D0124A33
:100EF000126842F40032104B1A6000BF0E4A52686A
:100F000002F40032002AF9D00A4A0832126822F0AC
:100F10000302084B08331A601A46126842F00202B4
:100F20001A6000BF034A0832126802F00802002A61
:100F3000F8D0704700380240007000401964400942
:100F400010B5FFF77FFF10BD10B5114800681149BB
:100F5000B0FBF1F4601EB0F1807F01D301200FE0FF
:100F6000601E4FF0E02148610F214FF0FF30FFF786
:100F700055F900204FF0E02188610720086100202A
:100F800008B100BFFEE70021481EFFF747F910BD7A
:100F90000400002040420F00016841F08001016020
:100FA0007047000010B531B101293FD002297DD032
:100FB00003297CD1BFE0036A23F001030362836944
:100FC00023F003038361036A148823430362036AE3
:100FD00023F002030362036A9488234303626A4B8B
:100FE000984202D0694B98421FD1036A23F0040350
:100FF0000362036A548823430362036A23F00803ED
:101000000362036AD48823430362436823F4807332
:1010100043604368148923434360436823F40073A7
:1010200043604368548923434360ABE0036A23F081
:1010300010030362836923F440738361036A148895
:1010400043EA04130362036A23F020030362036A82
:10105000948843EA041303624B4B984202D04B4BF3
:10106000984226D1036A23F040030362036A54883E
:1010700043EA04130362036A23F080030362036AF2
:10108000D48843EA04130362436823F48063436013
:101090004368148943EA84034360436823F400638C
:1010A00043604368548943EA840301E002E068E056
:1010B000436067E0036A23F480730362C36923F02B
:1010C0000303C361036A148843EA04230362036AC7
:1010D00023F400730362036A948843EA04230362DF
:1010E000294B984202D0294B984223D1036A23F41A
:1010F00080630362036A548843EA04230362036A39
:1011000023F400630362036AD48843EA042303627E
:10111000436823F4805343604368148943EA04130B
:101120004360436823F4005343604368548943EAAF
:101130000413436026E0036A23F480530362C36907
:1011400023F44073C361036A148843EA04330362DF
:10115000036A23F400530362036A948843EA043366
:101160000362094B984202D0084B984208D1436869
:1011700023F4804343604368148943EA8413436043
:1011800000E000BF00BF10BD0000014000040140AE
:1011900031B101290CD0022913D0032922D118E042
:1011A000836923F0700383618369134383611AE0C9
:1011B000836923F4E0438361836943EA0223836103
:1011C00011E0C36923F07003C361C3691343C361B2
:1011D00009E0C36923F4E043C361C36943EA02231E
:1011E000C36100E000BF00BF704731B1012906D0E4
:1011F000022906D0032908D105E0426306E0826394
:1012000004E0C26302E0026400E000BF00BF704778
:1012100031B101290CD0022913D0032922D118E0C1
:10122000836923F0080383618369134383611AE0B0
:10123000836923F400638361836943EA0223836142
:1012400011E0C36923F00803C361C3691343C36199
:1012500009E0C36923F40063C361C36943EA02235D
:10126000C36100E000BF00BF7047000010B5044636
:101270005C49601A8C426FD019DC5B49A4EB010019
:101280008C424ED009DCB4F1804F2ED05748204418
:10129000A0B3B0F5806F72D13AE0B0F5806F49D05D
:1012A000B0F5006F4FD0B0F5406FF4D17BE0B0F5F2
:1012B000923F5BD009DCB0F5806F73D0B0F5644F1E
:1012C0000AD0B0F5684F5AD147E0B0F5943F57D0F7
:1012D000B0F5963F53D15CE04FF41060FFF78EFD00
:1012E0004FF41060FFF778FD79E04FF40060FFF7EE
:1012F00085FD4FF40060FFF76FFD70E0FFE740F6FB
:101300000100FFF77BFD40F60100FFF765FD66E099
:1013100040F60200FFF772FD40F60200FFF75CFDA9
:101320005DE040F60300FFF769FD40F60300FFF7BC
:1013300053FD54E040F60400FFF760FD40F6040062
:10134000FFF74AFD4BE040F60500FFF757FD40F67A
:101350000500FFF741FD42E02EE040F60110FFF7E7
:101360004DFD40F60110FFF737FD38E04FF41160F6
:10137000FFF744FD4FF41160FFF72EFD2FE02DE045
:1013800040F61110FFF73AFD40F61110FFF724FD6B
:1013900025E040F61210FFF731FD40F61210FFF77E
:1013A0001BFD1CE011E040F60600FFF727FD40F6AC
:1013B0000600FFF711FD12E040F60700FFF71EFDE3
:1013C00040F60700FFF708FD09E040F60800FFF7C8
:1013D00015FD40F60800FFF7FFFC00E000BF00BF6E
:1013E00010BD0000001C0040000C004000FCFFBFCE
:1013F000016841F001010160704700000A888262C3
:101400001D4A90420ED0B0F1804F0BD01B4A904243
:1014100008D01B4A904205D01A4A904202D01A4A7C
:1014200090420BD1026822F07002026002684B8881
:101430001A43026002688B881A4302608A68C2629B
:10144000124A90420AD0124A904207D0026822F40F
:10145000407202600268CB881A430260064A9042DA
:1014600002D0094A904201D10A7B0263426942F0EC
:10147000010242617047000000000140000400408A
:1014800000080040000C0040000401400010004033
:10149000001400402DE9F04704460D460027B846E9
:1014A000B94600263349601A8C4235D00CDC3248EC
:1014B0002044E8B1B0F5806F1FD0B0F5006F21D0A7
:1014C000B0F5406F32D122E0B0F5806F29D0B0F591
:1014D000184F03D0B0F51C4F28D104E00320FFF7CC
:1014E000D7FB074623E00320FFF7D2FB07461EE0A9
:1014F0000220FFF7CDFB074619E00220FFF7C8FBEB
:10150000074614E00220FFF7C3FB07460FE0022066
:10151000FFF7BEFB07460AE00220FFF7B9FB0746CC
:1015200005E00220FFF7B4FB074600E000BF00BF64
:10153000E06800F4004070B1780000EB5500B0FBAB
:10154000F5F64FF6F07006EA0008C6F3420948EADD
:101550000900A0600CE007EB5500B0FBF5F64FF674
:10156000F07006EA000806F00F0948EA0900A060DA
:10157000BDE8F0870078004000BCFFBF0146486826
:10158000C0F308007047000010B504463349601AE4
:101590008C424DD00CDC32482044E0B1B0F5806F75
:1015A00022D0B0F5006F31D0B0F5406F52D136E0A7
:1015B000B0F5806F45D0B0F5184F03D0B0F51C4F93
:1015C00048D11AE040F60410FFF718FC40F604106A
:1015D000FFF702FC3FE040F61100FFF70FFC40F67A
:1015E0001100FFF7F9FB36E040F61200FFF706FCAA
:1015F00040F61200FFF7F0FB2DE040F60510FFF774
:10160000FDFB40F60510FFF7E7FB24E040F6130072
:10161000FFF7F4FB40F61300FFF7DEFB1BE040F69C
:101620001400FFF7EBFB40F61400FFF7D5FB12E0C8
:1016300040F61E00FFF7E2FB40F61E00FFF7CCFB72
:1016400009E040F61F00FFF7D9FB40F61F00FFF747
:10165000C3FB00E000BF00BF10BD000000780040E9
:1016600000BCFFBFC16841F40051C1607047000079
:1016700010B504464FF44060FFF79CFB4FF4406008
:10168000FFF798FB41F20410FFF794FB4FF48062E0
:1016900007212948FEF7DAFE4FF400720721264899
:1016A000FEF7D4FE4FF40073012202212248FEF718
:1016B00000FF4FF48063012202211F48FEF7F9FE6C
:1016C0004FF40073022200211B48FEF719FF4FF46C
:1016D0008063022200211848FEF712FF1748FFF727
:1016E00053FF21461548FFF7D5FE0021134800F0AF
:1016F00050F80021114800F06CF800210F4800F06C
:1017000058F80E48FFF7AEFF08210C4800F059F8D2
:1017100004210A4800F045F8022211462520FFF76F
:101720003DF940F20531054800F00AF84FF44171E7
:10173000024800F005F810BD000002400010014012
:1017400010B500EB9112126801F01F040123A340B1
:101750001A4300EB91131A6010BD70B502460023C6
:101760000024C1F38910105801F01F060125B5406F
:1017700000EA050302EB91500068C1F3044601251D
:10178000B54000EA050414B10BB1012070BD002082
:10179000FCE7C26822F4C062C260C2680A43C26049
:1017A00070470A460021C16821F004011143C1605D
:1017B0007047026922F44052026102690A430261E1
:1017C00070470A460021C16821F008011143C16039
:1017D0007047C26822F48052C260C2680A43C26085
:1017E0007047000004180008000000200C000000F2
:1017F000E8030008101800080C0000200414000082
:10180000F80300080000000000C2EB0B000000001D
:04000005080001AD41
:00000001FF
