:020000040800F2
:100000004807002089010008950300084D030008F7
:1000100091030008310200080F07000800000000EB
:10002000000000000000000000000000D9030008EC
:1000300035020008000000009703000803040008D0
:100040009F0100089F0100089F0100089F01000810
:100050009F0100089F0100089F0100089F01000800
:100060009F0100089F0100089F0100089F010008F0
:100070009F0100089F0100089F0100089F010008E0
:100080009F0100089F0100089F0100089F010008D0
:100090009F0100089F0100089F0100089F010008C0
:1000A0009F0100089F0100089F0100089F010008B0
:1000B0009F0100089F0100089F0100089F010008A0
:1000C0009F0100089F0100089F0100089F01000890
:1000D0009F010008290600089F0100089F010008F1
:1000E0009F0100089F0100089F01000800F002F82E
:1000F00000F03AF80AA090E8000C82448344AAF188
:100100000107DA4501D100F02FF8AFF2090EBAE885
:100110000F0013F0010F18BFFB1A43F0010318473B
:100120007808000098080000103A24BF78C878C109
:10013000FAD8520724BF30C830C144BF04680C60ED
:10014000704700000023002400250026103A28BF35
:1001500078C1FBD8520728BF30C148BF0B60704739
:100160001FB51FBD10B510BD00F02FF81146FFF7E9
:10017000F7FF00F011FB00F04DF803B4FFF7F2FFBA
:1001800003BC00F0C6FA000008480047FEE7FEE79F
:10019000FEE7FEE7FEE7FEE7FEE7FEE7FEE7FEE737
:1001A00003480449044A054B70470000ED0000086D
:1001B0004801002048070020480300204803002091
:1001C00070477047704770477047754600F02CF8CD
:1001D000AE4605006946534620F00700854618B034
:1001E00020B5FFF7DDFFBDE820404FF000064FF0DF
:1001F00000074FF000084FF0000B21F00701AC465C
:10020000ACE8C009ACE8C009ACE8C009ACE8C0097A
:100210008D46704710B50446AFF300802046BDE818
:100220001040FFF7AABF000000487047E800002018
:1002300000BFFEE770472DE9F04102460025002689
:10024000002000230024002791F803C00CF00F05C4
:1002500091F803C00CF0100CBCF1000F03D091F822
:1002600002C04CEA050591F800C0BCF1000F31D086
:10027000146800202BE04FF0010C0CFA00F3B1F8E9
:1002800000C00CEA03069E4220D183004FF00F0C01
:100290000CFA03F7BC4305FA03FC4CEA040491F89A
:1002A00003C0BCF1280F06D14FF0010C0CFA00FC82
:1002B000C2F814C00AE091F803C0BCF1480F05D1A0
:1002C0004FF0010C0CFA00FCC2F810C0401C0828CA
:1002D000D1D31460B1F800C0BCF1FF0F34DD546815
:1002E00000202EE000F1080C4FF0010808FA0CF392
:1002F000B1F800C00CEA03069E4221D183004FF002
:100300000F0C0CFA03F7BC4305FA03FC4CEA040497
:1003100091F803C0BCF1280F05D100F1080C08FAD0
:100320000CF8C2F8148091F803C0BCF1480F07D153
:1003300000F1080C4FF0010808FA0CF8C2F8108020
:10034000401C0828CED35460BDE8F08100BFFEE712
:1003500010B519210B4800F010F91921094800F0D7
:100360000EF901200849086000200849C1F88401FD
:10037000012005492831086000200449C1F8AC017A
:1003800010BD000000080040808121420080214211
:1003900000BFFEE77047704729B1064AD2690243A1
:1003A000044BDA6104E0034AD2698243014BDA610B
:1003B000704700000010024029B1064A92690243CA
:1003C000044B9A6104E0034A92698243014B9A61AB
:1003D00070470000001002407047042808D14FF019
:1003E000E021096941F004014FF0E022116107E0CA
:1003F0004FF0E021096921F004014FF0E022116182
:100400007047704721B1028842F00102028004E087
:1004100002884FF6FE731A400280704770B50024C0
:1004200000220023058C4FF6FE7635400584028CB1
:100430008388048B4FF68F752C40B51E2C400D8899
:100440002C43751E2A400D892A434D882A43144D9A
:10045000A8420BD0134DA84208D0134DA84205D096
:10046000124DA84202D0124DA84213D14FF6F77593
:100470002A404D892A434FF6FB752A408D882A432E
:100480004FF6FF652B404FF6FF552B408D892B43D0
:10049000CD892B4383800483CD888586028470BDFB
:1004A000002C014000340140004001400044014064
:1004B000004801400A460021018B4FF6F7731940AE
:1004C000114301837047000070B50024002200230F
:1004D000058C4FF6FF6635400584028C8388848B3B
:1004E0004FF68F752C404FF6FC752C400D882C4331
:1004F0004FF6FF552A400D894FF6FF7606EA05258F
:100500002A434D8806EA05252A43154DA84202D004
:10051000144DA8421DD14FF2FF752A404D894FF668
:10052000FF7606EA05252A434FF6FF352A408D88D7
:1005300006EA05252A434EF6FF752B404DF6FF755A
:100540002B408D8906EA05152B43CD8906EA051552
:100550002B4383808483CD888587028470BD00000F
:10056000002C0140003401400A460021818B4FF6E7
:10057000F7731940114381837047818670478187E3
:1005800070470000002202881D4B98420ED01D4B80
:1005900098420BD0B0F1804F08D01B4B984205D049
:1005A0001A4B984202D01A4B984204D14FF68F73DF
:1005B0001A404B881A43174B984207D0164B984263
:1005C00004D04FF6FF431A40CB881A4302808B8831
:1005D00083850B8803850A4B98420BD0094B9842C0
:1005E00008D00E4B984205D00D4B984202D00D4BCF
:1005F000984201D10B7A0386012383827047000061
:10060000002C01400034014000040040000800407C
:10061000000C004000100040001400400040014069
:10062000004401400048014010B540F225511D48EA
:1006300000F03EF810B31B4800F064F8C4B21A484A
:10064000008800F40040C8B91748008800F48040D2
:1006500060B10A2C03D000201349088020E0124822
:10066000008840F400401049088019E00D2C06D1A4
:100670000D48008840F480400B49088010E00A488B
:100680000088C0F30D0009490C5407480088401C3D
:100690000549088008460088C72801DD0020088039
:1006A00010BD0000003801401C0000202000002088
:1006B00070B50246002400230025002040F66A168B
:1006C000B14200D100BFC1F3421501F01F03012662
:1006D00006FA03F3012D02D19689334006E0022D7C
:1006E00002D1168A334001E0968A33400C1201266B
:1006F00006FA04F41688344013B10CB1012000E06E
:10070000002070BD01468888C0F30800704700BF14
:10071000FEE700BF7047000010B56FF00400FFF760
:100720005CFE0A4800680A49B0FBF1F0094908700C
:100730000846007800EB4001C1EBC0104FF6FF7196
:1007400001EAC0000449088010BD0000000000203C
:1007500000127A00140000201600002010B51E219F
:100760000A48FFF70AFF00210848FFF708FF0020AA
:10077000074908600749C1F884010120044928316C
:10078000086000200349C1F8AC0110BD000800401A
:10079000808121420080214200F03AF800F0EAF81E
:1007A00000F04CF8FFF7B8FFFFF7D2FD2DE0174837
:1007B000006830B915480830006810B900F0A8F892
:1007C00023E01248006838B9104808300068012852
:1007D00002D100F07FF818E00C480068012806D12B
:1007E0000A480830006810B9FFF7B8FF0DE0074865
:1007F0000068012807D1054808300068012802D1A7
:1008000000F086F801E000F0A3F8D0E70C81214267
:1008100008B501210820FFF7CFFD40F60340ADF8F1
:10082000000010208DF8030003208DF802006946B7
:100830000148FFF700FD08BD000C014000B589B07C
:100840004FF4A070ADF8040018208DF807000320C5
:100850008DF8060001A91D48FFF7EDFC01210420D9
:10086000FFF79AFD01210820FFF7A6FD6320ADF8F0
:100870001C004720ADF818000020ADF81E00ADF8B0
:100880001A0006A91248FFF77DFE6020ADF80800A7
:100890000120ADF80A000020ADF81000ADF80E0000
:1008A00002A90B48FFF7BAFD02A90948FFF70CFEA1
:1008B00008210748FFF7FEFD08210548FFF754FE11
:1008C00001210348FFF79EFD09B000BD000C014067
:1008D0000008004010B500210A48FFF74EFE1E2117
:1008E0000848FFF74CFE012007490860002007492F
:1008F000C1F884010449283108600449C1F8AC01F9
:1009000010BD00000008004080812142008021428B
:1009100010B51E210B48FFF730FE1E210948FFF7D6
:100920002EFE01200849086000200849C1F8840112
:10093000012005492831086000200449C1F8AC01B4
:1009400010BD00000008004080812142008021424B
:100950000020064908600649C1F88401034928318E
:1009600008600349C1F8AC01704700008081214252
:100970000080214208B501210420FFF71DFD282039
:10098000ADF8000048208DF8030069460148FFF7E4
:1009900052FC08BD000C0140B8090008000000200E
:1009A0002000000028010008D809000820000020CD
:1009B000280700004401000800A24A0400000000CB
:1009C00000000000010203040607080900000000FF
:0809D00000000000000000001F
:040000050800018965
:00000001FF
