:020000040800F2
:1000000008040020C50100081D02000815020008B0
:10001000190200080D0200082D030008000000006E
:100020000000000000000000000000004D02000879
:1000300011020008000000004902000851020008F7
:10004000DF010008DF010008DF010008DF01000810
:10005000DF010008DF010008DF010008DF01000800
:10006000DF010008DF010008DF010008DF010008F0
:10007000DF010008DF010008DF010008DF010008E0
:10008000DF010008DF010008DF010008DF010008D0
:10009000DF010008DF010008DF010008DF010008C0
:1000A000DF010008DF010008DF010008DF010008B0
:1000B000DF010008DF010008DF010008DF010008A0
:1000C000DF010008DF010008DF010008DF01000890
:1000D000DF010008DF010008DF010008DF01000880
:1000E000DF010008DF010008DF010008DF01000870
:1000F000DF010008DF010008DF010008DF01000860
:10010000DF010008DF010008DF010008DF0100084F
:10011000DF010008DF010008DF010008DF0100083F
:10012000DF010008DF010008DF010008DF0100082F
:10013000DF010008DF010008DF010008DF0100081F
:10014000DF010008DF010008DF010008DF0100080F
:10015000DF010008DF010008DF010008DF010008FF
:10016000DF010008DF010008DF010008DF010008EF
:10017000DF010008DF010008DF01000800000000C7
:10018000DF010008DF010008DF010008DF010008CF
:10019000DF010008DF010008DF01000800000000A7
:1001A000DF010008DF010008DF010008DFF810D0E0
:1001B00000F01AF80048004789040008AFF30080F7
:1001C000080400200648804706480047FEE7FEE78F
:1001D000FEE7FEE7FEE7FEE7FEE7FEE7FEE7FEE7F7
:1001E00059020008AD010008064C074D06E0E06822
:1001F00040F0010394E8070098471034AC42F6D36E
:10020000FFF7D8FF680600088806000800BFFEE771
:1002100000BFFEE700BFFEE700BFFEE700BFFEE74E
:1002200010B5002807DA0A07140E054A00F00F037C
:100230001B1FD45403E00A07130E024A135410BDC7
:1002400018ED00E000E400E000BFFEE700BFFEE7BD
:1002500010B500F087F810BD08B53048006840F4CC
:1002600070002E4908602E48006840F001002C49BB
:10027000086000BF2A48006800F002000028F9D09A
:1002800000BF27480830006840F08000244908314A
:1002900008600020009002E00098401C0090009848
:1002A0005028F9D31E480830006840F090001C49DF
:1002B000083108600020009002E00098401C009087
:1002C00000985028F9D300BF15480830006820F086
:1002D00003001349083108601148006811490840BB
:1002E0000F4908600846006820F48020086000205C
:1002F0000B490831086000BF094808300068002039
:100300000028F9D108480649091D08600020044961
:100310000C31086000F05CF908BD000088ED00E0D9
:1003200000380240FFFFF6FE1030002400BFFEE759
:1003300002E008C8121F08C1002AFAD170477047AE
:10034000002001E001C1121F002AFBD1704700000C
:100350000349086000BF024909680029FBD17047C2
:10036000000000200448006820B103480068401ED7
:10037000014908607047000000000020C16270471A
:10038000F0B504460D4616462168E268002019E0E3
:10039000012787401F409FB14FEA400C032707FA0F
:1003A0000CF7B943470005FA07F739434FEA400C09
:1003B000032707FA0CF7BA43470006FA07F73A4350
:1003C000471CB8B21028E3D32160E260F0BDF0B55D
:1003D0000C461546012C03D146681E43466002E0D8
:1003E00046689E434660826800210DE001268E40EB
:1003F0001E403EB14F000326BE40B2434E0005FAF8
:1004000006F632434E1CB1B21029EFD38260F0BD24
:1004100010B5002400BF1EE0104901EB041108884C
:1004200000F040F80D4901EB04118B680B4901EB1A
:100430000411002248680121FFF7A2FF074901EBE0
:1004400004118B68054901EB041102224868002160
:10045000FFF7BDFF641C042CDED310BD2806000886
:1004600010B50446042C00D310BD064A02EB04125A
:100470009168044A02EB04125068FFF77FFF00BF47
:10048000F2E700002806000800F0A6F8FFF7C0FF1A
:1004900006E04FF47A70FFF75BFF0120FFF7E0FF03
:1004A000F7E70000074A02EB9011D1F8001800F0BE
:1004B0001F0301229A401143024B03EB9012C2F832
:1004C0000018704700300240002000213D4A1268A9
:1004D00042F480323B4B1A6000BF401C394A12681C
:1004E00002F4003119B94FF6FF729042F5D1354A46
:1004F000126802F4003232B900BF324A126802F4C4
:100500000032002AF9D02F4A4032126842F080525D
:100510002C4B40331A602C4A126842F440422A4B5A
:100520001A60284A08321268264B08331A601A46A5
:10053000126842F400421A601A46126842F4A0524D
:100540001A60224A1B1F1A601A1F126842F080723A
:100550001B1F1A6000BF1B4A126802F00072002ABB
:10056000F9D0194A126842F48032174B1A6000BF62
:10057000154A526802F48032002AF9D0124A1268F1
:1005800042F40032104B1A6000BF0F4A526802F466
:100590000032002AF9D00B4A0832126822F0030216
:1005A000084B08331A601A46126842F002021A60B9
:1005B00000BF044A0832126802F00802002AF8D08C
:1005C0007047000000380240007000401978400A6F
:1005D00010B5FFF779FF10BD10B5124800684FF451
:1005E0007A71B0FBF1F4601EB0F1807F01D301207D
:1005F0000FE0601E4FF0E02148610F214FF0FF3007
:10060000FFF70EFE00204FF0E0218861072008610F
:10061000002008B100BFFEE70021481EFFF700FEE2
:1006200010BD000004000020040C00000010024077
:100630000800000000000000030C0000000C024055
:100640008000000000000000060C000000180240BE
:100650000800000000000000000C00000000024044
:1006600020000000000000008806000800000020B4
:100670000800000030030008900600080800002071
:10068000000400004003000800000000001C4E0EA3
:04000005080001AD41
:00000001FF
