:020000040800F2
:1000000008040020C50100081D02000815020008B0
:10001000190200080D020008A906000800000000EF
:10002000000000000000000000000000C9050008FA
:100030001102000800000000C5050008CD050008F9
:10004000DF010008DF010008DF010008DF01000810
:10005000DF010008DF010008DF010008DF01000800
:10006000DF010008DF010008DF010008DF010008F0
:10007000DF010008DF010008DF010008DF010008E0
:10008000DF010008DF010008DF010008DF010008D0
:10009000DF010008DF010008DF010008DF010008C0
:1000A000DF010008DF010008DF010008DF010008B0
:1000B000DF010008DF010008DF010008DF010008A0
:1000C000DF010008DF010008DF010008DF01000890
:1000D000DF010008DF010008DF010008DF01000880
:1000E000DF010008DF010008DF010008DF01000870
:1000F000DF010008DF010008DF010008DF01000860
:10010000DF010008DF010008DF010008DF0100084F
:10011000DF010008DF010008DF010008DF0100083F
:10012000DF010008DF010008DF010008DF0100082F
:10013000DF010008DF010008DF010008DF0100081F
:10014000DF010008DF010008DF010008DF0100080F
:10015000DF010008DF010008DF010008DF010008FF
:10016000DF010008DF010008DF010008DF010008EF
:10017000DF010008DF010008DF01000800000000C7
:10018000DF010008DF010008DF010008DF010008CF
:10019000DF010008DF010008DF01000800000000A7
:1001A000DF010008DF010008DF010008DFF810D0E0
:1001B00000F01AF800480047F1070008AFF300808C
:1001C000080400200648804706480047FEE7FEE78F
:1001D000FEE7FEE7FEE7FEE7FEE7FEE7FEE7FEE7F7
:1001E000D5050008AD010008064C074D06E0E068A3
:1001F00040F0010394E8070098471034AC42F6D36E
:10020000FFF7D8FF840F0008A40F000800BFFEE727
:1002100000BFFEE700BFFEE700BFFEE700BFFEE74E
:1002200010B5002807DA0A07140E054A00F00F037C
:100230001B1FD45403E00A07130E024A135410BDC7
:1002400018ED00E000E400E070B500240EE00021AD
:10025000204600F038F9002504E0002000F0A2F963
:10026000681CC5B2802DF8DB601CC4B2082CEEDB24
:1002700070BD000010B540F6014000F0C9FA40F62C
:10028000014000F0C5FA4FF4807204211B4800F0D1
:1002900033FA4FF400720421184800F02DFA4FF49D
:1002A000807301220221154800F05AFA4FF480733E
:1002B00002220121114800F07AFA4FF40073012262
:1002C00002210E4800F04CFA4FF400730222012183
:1002D0000A4800F06CFA01221102084800F03BFACB
:1002E0004FF47A7000F0F2F901225102034800F055
:1002F00032FA4FF47A7000F0E9F910BD00040240C0
:1003000070B50546002425E080202041284008B132
:10031000012000E0002002464FF40071184800F070
:100320001AFA4FF47A7000F0D1F901221102144840
:1003300000F011FA4FF47A7000F0C8F900224FF47F
:1003400080710F4800F007FA4FF47A7000F0BEF9A0
:10035000601CC4B2082CD7DB01221102084800F04F
:10036000FAF94FF47A7000F0B1F900224FF480717D
:10037000034800F0F0F94FF47A7000F0A7F970BD6F
:100380000004024010B501225102124800F0E3F9C6
:100390004FF47A7000F09AF9012211020D4800F032
:1003A000DAF94FF47A7000F091F900224FF40071FD
:1003B000084800F0D0F94FF47A7000F087F9002275
:1003C0004FF48071034800F0C6F94FF47A7000F0E2
:1003D0007DF910BD0004024010B500224FF40071F9
:1003E0000C4800F0B8F94FF47A7000F06FF9012270
:1003F0001102084800F0AFF94FF47A7000F066F986
:1004000001225102034800F0A6F94FF47A7000F07F
:100410005DF910BD0004024070B5002406E000251F
:1004200000E06D1CB5F57A7FFBD3641CB4F57A7FD0
:10043000F5D3FFF71FFFAE2000F0A4F8D52000F0A1
:10044000A1F8802000F09EF8A82000F09BF83F2043
:1004500000F098F8D32000F095F8002000F092F812
:10046000402000F08FF8A12000F08CF8C82000F0A8
:1004700089F8DA2000F086F8122000F083F8812055
:1004800000F080F8CF2000F07DF8D92000F07AF855
:10049000F12000F077F8DB2000F074F8302000F055
:1004A00071F8A42000F06EF8A62000F06BF88D2003
:1004B00000F068F8142000F065F8AF2000F062F852
:1004C000FFF7C2FE70BD70B505460C4645F0B000A2
:1004D00000F058F8102141EA141000F053F804F02D
:1004E0000F0000F04FF870BD2DE9F04105460E46B3
:1004F0001746721ED206110E6A1E5206100EFFF724
:10050000E2FF002409E0A7F12001134A02EB0111E8
:10051000085D00F047F8601CC4B2082CF3DB721EC3
:10052000D206110E6A1E012303EB4202D0B2FFF77E
:10053000CAFF00240BE0A7F12001074A02EB0112D9
:1005400004F10801505C00F02DF8601CC4B2082CC6
:10055000F1DBBDE8F0810000940900082DE9F041CD
:1005600007460E461546002407E02A5D3019C1B241
:100570003846FFF7B9FF601CC4B2285D0028F4D1EB
:10058000BDE8F08110B50446FFF7FCFE7820FFF7C8
:10059000B7FE0020FFF7B4FE2046FFF7B1FEFFF7DD
:1005A0001BFF10BD10B50446FFF7ECFE7820FFF7E7
:1005B000A7FE4020FFF7A4FE2046FFF7A1FEFFF7AD
:1005C0000BFF10BD00BFFEE700BFFEE710B500F057
:1005D00087F810BD08B53048006840F470002E4917
:1005E00008602E48006840F001002C49086000BFF8
:1005F0002A48006800F002000028F9D000BF274810
:100600000830006840F0800024490831086000206C
:10061000009002E00098401C009000985028F9D308
:100620001E480830006840F090001C4908310860FE
:100630000020009002E00098401C00900098502894
:10064000F9D300BF15480830006820F003001349B3
:100650000831086011480068114908400F490860D6
:100660000846006820F48020086000200B4908310B
:10067000086000BF09480830006800200028F9D150
:1006800008480649091D0860002004490C3108602B
:1006900000F054F908BD000088ED00E00038024089
:1006A000FFFFF6FE1030002400BFFEE702E008C89E
:1006B000121F08C1002AFAD170477047002001E0DC
:1006C00001C1121F002AFBD17047000003490860D6
:1006D00000BF024909680029FBD1704700000020D3
:1006E0000448006820B103480068401E01490860C2
:1006F0007047000000000020F0B503461C6A5D6AE8
:1007000000200DE00126864016403EB187000F26EE
:10071000BE40B443860001FA06F63443461CB0B22C
:100720000828EFD3082011E00126864016405EB16C
:10073000A0F10806B7000F26BE40B543A0F1080699
:10074000B60001FA06F63543461CB0B21028EBD3CA
:100750001C625D62F0BD0AB1816100E08162704798
:10076000F0B504460D4616462168E268002019E0FF
:10077000012787401F409FB14FEA400C032707FA2B
:100780000CF7B943470005FA07F739434FEA400C25
:10079000032707FA0CF7BA43470006FA07F73A436C
:1007A000471CB8B21028E3D32160E260F0BDF0B579
:1007B0000C461546012C03D146681E43466002E0F4
:1007C00046689E434660826800210DE001268E4007
:1007D0001E403EB14F000326BE40B2434E0005FA14
:1007E00006F632434E1CB1B21029EFD38260F0BD41
:1007F00000F0A8F8FFF710FE04E003A2012108466C
:10080000FFF7ACFEF9E7000048656C6C6F21000053
:10081000074A02EB9011D1F8001800F01F030122E3
:100820009A401143024B03EB9012C2F80018704734
:1008300000300240002000213D4A126842F480321C
:100840003B4B1A6000BF401C394A126802F4003169
:1008500019B94FF6FF729042F5D1354A126802F489
:10086000003232B900BF324A126802F40032002A64
:10087000F9D02F4A4032126842F080522C4B40335C
:100880001A602C4A126842F440422A4B1A60284AE5
:1008900008321268264B08331A601A46126842F46E
:1008A00000421A601A46126842F4A0521A60224AA4
:1008B0001B1F1A601A1F126842F080721B1F1A60F9
:1008C00000BF1B4A126802F00072002AF9D0194AD0
:1008D000126842F48032174B1A6000BF154A526802
:1008E00002F48032002AF9D0124A126842F400322F
:1008F000104B1A6000BF0F4A526802F40032002AFF
:10090000F9D00B4A0832126822F00302084B083370
:100910001A601A46126842F002021A6000BF044AC6
:100920000832126802F00802002AF8D0704700006E
:1009300000380240007000401978400A10B5FFF7F7
:1009400079FF10BD10B5124800684FF47A71B0FB02
:10095000F1F4601EB0F1807F01D301200FE0601E32
:100960004FF0E02148610F214FF0FF30FFF758FCB6
:1009700000204FF0E021886107200861002008B1C5
:1009800000BFFEE70021481EFFF74AFC10BD000033
:100990000400002000000000000000000000000033
:1009A00000000000000000F800000000000000331C
:1009B0003000000000100C06100C060000000000C3
:1009C0000000000040C07840C0784000043F0404AC
:1009D0003F040400007088FC08300000001820FF6D
:1009E000211E0000F008F000E018000000211C03A8
:1009F0001E211E0000F00888700000001E21232424
:100A00001927211010160E00000000000000000041
:100A100000000000000000E01804020000000007D1
:100A20001820400000020418E000000000402018D8
:100A300007000000404080F0804040000202010FAB
:100A400001020200000000F0000000000101011F8F
:100A500001010100000000000000000080B07000F3
:100A60000000000000000000000000000001010183
:100A70000101010100000000000000000030300012
:100A800000000000000000008060180400601806EC
:100A90000100000000E010080810E000000F102026
:100AA00020100F00001010F8000000000020203F70
:100AB00020200000007008080888700000302824FA
:100AC000222130000030088888483000001820209B
:100AD00020110E000000C02010F8000000070424C0
:100AE000243F240000F80888880808000019212005
:100AF00020110E0000E0108888180000000F11205F
:100B000020110E0000380808C83808000000003F17
:100B1000000000000070880808887000001C222176
:100B200021221C0000E010080810E0000000312223
:100B300022110F00000000C0C000000000000030C3
:100B40003000000000000080000000000000806015
:100B50000000000000008040201008000001020496
:100B6000081020004040404040404000040404047D
:100B70000404040000081020408000000020100839
:100B800004020100007048080808F000000000306E
:100B900036010000C030C828E810E00007182724FC
:100BA00023140B000000C038E0000000203C2302AA
:100BB0000227382008F8888888700000203F20200D
:100BC00020110E00C030080808083800071820203F
:100BD0002010080008F808080810E000203F202036
:100BE00020100F0008F88888E8081000203F202017
:100BF0002320180008F88888E8081000203F20000B
:100C000003000000C0300808083800000718202042
:100C1000221E020008F808000008F808203F210101
:100C200001213F20000808F8080800000020203FAC
:100C30002020000000000808F8080800C08080801C
:100C40007F00000008F888C028180800203F200115
:100C50002638200008F8080000000000203F20206F
:100C60002020300008F8F800F8F80800203F003F86
:100C7000003F200008F830C00008F808203F20009E
:100C800007183F00E01008080810E0000F102020AF
:100C900020100F0008F808080808F000203F210184
:100CA00001010000E01008080810E0000F182424DB
:100CB00038504F0008F8888888887000203F20004E
:100CC000030C302000708808080838000038202104
:100CD00021221C00180808F8080818000000203F0E
:100CE0002000000008F808000008F808001F202075
:100CF00020201F000878880000C838080000073846
:100D00000E010000F80800F80008F800033C070096
:100D1000073C0300081868808068180820302C03FE
:100D2000032C30200838C800C83808000000203FD5
:100D30002000000010080808C838080020382621C4
:100D400020201800000000FE020202000000007FC8
:100D500040404000000C30C00000000000000001D6
:100D60000638C00000020202FE00000000404040C1
:100D70007F000000000004020202040000000000E6
:100D80000000000000000000000000008080808063
:100D9000808080800002020400000000000000004B
:100DA00000000000000080808080000000192422E4
:100DB00022223F2008F8008080000000003F112020
:100DC00020110E000000008080800000000E112025
:100DD00020201100000000808088F800000E112003
:100DE00020103F200000808080800000001F222211
:100DF00022221300008080F0888888180020203F7D
:100E0000202000000000808080808000006B94948F
:100E10009493600008F8008080800000203F21004B
:100E200000203F2000809898000000000020203F14
:100E300020200000000000809898000000C0808002
:100E4000807F000008F8000080808000203F24029E
:100E50002D302000000808F8000000000020203F8E
:100E6000202000008080808080808000203F200043
:100E70003F20003F8080008080800000203F2100D4
:100E800000203F200000808080800000001F202084
:100E900020201F00808000808000000080FFA120B3
:100EA00020110E000000008080808000000E1120C4
:100EB00020A0FF80808080008080800020203F2153
:100EC0002000010000008080808080000033242406
:100ED00024241900008080E0808000000000001FB2
:100EE000202000008080000000808000001F202063
:100EF00020103F20808080000080808000010E3024
:100F00000806010080800080008080800F300C0384
:100F10000C300F0000808000808080000020312E87
:100F20000E312000808080000080808080818E7063
:100F30001806010000808080808080000021302C15
:100F40002221300000000000807C0202000000002E
:100F5000003F404000000000FF00000000000000D3
:100F6000FF0000000002027C800000000040403FC3
:100F7000000000000006010102020404000000005D
:100F800000000000A40F000800000020080000007E
:100F9000AC060008AC0F00080800002000040000A8
:0C0FA000BC06000800000000001C4E0E03
:04000005080001AD41
:00000001FF
