:020000040800F2
:1000000008040020C50100081B02000813020008B4
:10001000170200080D020008190300080000000084
:10002000000000000000000000000000470200087F
:100030001102000800000000450200084902000803
:10004000DF010008DF010008DF010008DF01000810
:10005000DF010008DF010008DF010008DF01000800
:10006000DF010008DF010008DF010008DF010008F0
:10007000DF010008DF010008DF010008DF010008E0
:10008000DF010008DF010008DF010008DF010008D0
:10009000DF010008DF010008DF010008DF010008C0
:1000A000DF010008DF010008DF010008DF010008B0
:1000B000DF010008DF010008DF010008DF010008A0
:1000C000DF010008DF010008DF010008DF01000890
:1000D000DF010008DF010008DF010008DF01000880
:1000E000DF010008DF010008DF010008DF01000870
:1000F000DF010008DF010008DF010008DF01000860
:10010000DF010008DF010008DF010008DF0100084F
:10011000DF010008DF010008DF010008DF0100083F
:10012000DF010008DF010008DF010008DF0100082F
:10013000DF010008DF010008DF010008DF0100081F
:10014000DF010008DF010008DF010008DF0100080F
:10015000DF010008DF010008DF010008DF010008FF
:10016000DF010008DF010008DF010008DF010008EF
:10017000DF010008DF010008DF01000800000000C7
:10018000DF010008DF010008DF010008DF010008CF
:10019000DF010008DF010008DF01000800000000A7
:1001A000DF010008DF010008DF010008DFF810D0E0
:1001B00000F01AF8004800472D040008AFF3008053
:1001C000080400200648804706480047FEE7FEE78F
:1001D000FEE7FEE7FEE7FEE7FEE7FEE7FEE7FEE7F7
:1001E00051020008AD010008064C074D06E0E0682A
:1001F00040F0010394E8070098471034AC42F6D36E
:10020000FFF7D8FFD8050008F805000800BFFEE793
:10021000704700BFFEE700BFFEE7704710B500283B
:1002200007DA0A07140E054A00F00F031B1FD45407
:1002300003E00A07130E024A135410BD18ED00E044
:1002400000E400E07047704710B500F081F810BD81
:1002500008B52D48006840F470002B4908602B4811
:10026000006840F00100294908602848083000680B
:1002700040F080002549083108600020009002E02D
:100280000098401C00904CF2503100988842F7D3FF
:100290001E480830006840F090001C490831086092
:1002A0000020009002E00098401C00904CF2503179
:1002B00000988842F7D315480830006820F0030002
:1002C00012490831086011480068114908400F4977
:1002D00008600846006820F48020086000200B4970
:1002E0000831086000BF0948083000680020002875
:1002F000F9D108480549091D0860002003490C315F
:10030000086000F03DF908BD88ED00E000380240CB
:10031000FFFFF6FE1030002400BFFEE702E008C831
:10032000121F08C1002AFAD170477047002001E06F
:1003300001C1121F002AFBD1704700000349086069
:1003400000BF024909680029FBD170470000002066
:100350000448006820B103480068401E0149086055
:1003600070470000000000200AB1816100E0816256
:100370007047F0B504460D4616462168E268002035
:1003800019E0012787401F409FB14FEA400C032727
:1003900007FA0CF7B943470005FA07F739434FEA64
:1003A000400C032707FA0CF7BA43470006FA07F791
:1003B0003A43471CB8B21028E3D32160E260F0BD95
:1003C000F0B50C461546012C03D146681E43466025
:1003D00002E046689E434660826800210DE00126E7
:1003E0008E401E403EB14F000326BE40B2434E0039
:1003F00005FA06F632434E1CB1B21029EFD38260E3
:10040000F0BD000010B540F6034000F029F880234D
:10041000002201210448FFF7ACFF802302220021C3
:100420000148FFF7CDFF10BD000C024000F0ACF812
:10043000FFF7E8FF11E0012280210848FFF794FF51
:100440004FF47A70FFF77AFF002280210348FFF70C
:100450008BFF4FF47A70FFF771FFECE7000C02405E
:10046000074A02EB9011D1F8001800F01F03012297
:100470009A401143024B03EB9012C2F800187047E8
:1004800000300240002000213A4A126842F48032D3
:10049000384B1A6000BF401C364A126802F4003123
:1004A00019B94FF6FF729042F5D1324A126802F440
:1004B00000320AB900BFFEE72E4A4032126842F00D
:1004C00080522C4B40331A602B4A126842F440424F
:1004D000294B1A60274A08321268264B08331A60E3
:1004E0001A46126842F400421A601A46126842F430
:1004F000A0521A60214A1B1F1A601A1F126842F08C
:1005000080721B1F1A6000BF1A4A126802F0007244
:10051000002AF9D0184A126842F48032164B1A6049
:1005200000BF154A526802F48032002AF9D0124AFC
:10053000126842F40032104B1A6000BF0E4A526833
:1005400002F40032002AF9D00A4A0832126822F076
:100550000302084B08331A601A46126842F002027E
:100560001A6000BF034A0832126802F00802002A2B
:10057000F8D070470038024000700040196440090C
:1005800010B5FFF77FFF10BD10B5124800684FF49B
:100590007A71B0FBF1F4601EB0F1807F01D30120CD
:1005A0000FE0601E4FF0E02148610F214FF0FF3057
:1005B000FFF734FE00204FF0E0218861072008613A
:1005C000002008B100BFFEE70021481EFFF726FE0D
:1005D00010BD000004000020F80500080000002005
:1005E000080000001C0300080006000808000020A6
:1005F000000400002C0300080000000000C2EB0B08
:04000005080001AD41
:00000001FF
