:020000040800F2
:1000000010040020C501000803080008FB070008D1
:10001000FF070008F50700080109000800000000BC
:100020000000000000000000000000002F08000891
:10003000F9070008000000002D080008310800083A
:10004000DF010008DF010008DF010008DF01000810
:10005000DF010008DF010008DF010008DF01000800
:10006000DF010008DF010008DF010008DF010008F0
:10007000DF010008DF010008DF010008DF010008E0
:10008000DF010008DF010008DF010008DF010008D0
:10009000DF010008DF010008DF010008DF010008C0
:1000A000DF010008DF010008DF010008DF010008B0
:1000B000DF010008DF010008DF010008DF010008A0
:1000C000DF010008DF010008DF010008DF01000890
:1000D000DF010008DF010008DF010008DF01000880
:1000E000DF010008DF010008DF010008DF01000870
:1000F000DF010008DF010008DF010008DF01000860
:10010000DF010008DF010008DF010008DF0100084F
:10011000DF010008DF010008DF010008DF0100083F
:10012000DF010008DF010008DF010008DF0100082F
:10013000DF010008DF010008DF010008DF0100081F
:10014000DF010008DF010008DF010008DF0100080F
:10015000DF010008DF010008DF010008DF010008FF
:10016000DF010008DF010008DF010008DF010008EF
:10017000DF010008DF010008DF01000800000000C7
:10018000DF010008DF010008DF010008DF010008CF
:10019000DF010008DF010008DF01000800000000A7
:1001A000DF010008DF010008DF010008DFF810D0E0
:1001B00000F0FEFA0048004725130008AFF3008066
:1001C000100400200648804706480047FEE7FEE787
:1001D000FEE7FEE7FEE7FEE7FEE7FEE7FEE7FEE7F7
:1001E00039080008AD0100082DE9FE4F804681EA7C
:1001F0000300C00F0C46009021F0004123F00045A1
:10020000B8EB0200A94105D24046214690461C4663
:100210000B46024623F00040104347D0270DC7F39A
:100220000A00C3F30A510290401A019040286BDA89
:10023000C3F3130040F4801B0098924620B10023C2
:10024000D2EB030A63EB0B0B01985946C0F1400255
:10025000504600F0E6F806460D4650465946019ACB
:1002600000F0EEF810EB08006141002487EA11521B
:1002700084EAE7731A4340D0009A62B3019A012AD4
:100280004FEA075215DC001B61EB02014FF0004200
:1002900002EA0752CDE90042001C41F580113246C6
:1002A0002B4600F025F903B0BDE8F08F404621460B
:1002B000F9E7001B61EB0201001C41F580130018F7
:1002C0005B412018A2F5001747EB030140EAD57007
:1002D000B6196D4111E06D084FEA360645EAC07562
:1002E0004FEA0752001B61EB0201001C41F580112F
:1002F00049084FEA30000019514132462B4603B0FD
:10030000BDE8F04F00F0E5B800980122400000235E
:10031000D0EB020263EBE073009821464FEAE074F1
:10032000B8EB000061EB0401E9E783F000435BE711
:1003300081F0004158E700F0004230F000400AD060
:10034000C10D01F56071C0F3160042EA0151C20807
:1003500040071143704700200146704701F00043F9
:1003600030B421F0004150EA010206D00A0DA2F596
:100370006072C1F31301002A02DC30BC0020704718
:10038000440F44EAC104C100E01830BC00EBC25085
:1003900000F068B830B50B46014600202022012449
:1003A00009E021FA02F59D4205D303FA02F5491B43
:1003B00004FA02F52844151EA2F10102F1DC30BD59
:1003C0002DE9F05F0546002092469B46884606468A
:1003D000814640241BE0284641464746224600F01D
:1003E000F9F953465A46C01A914110D3114618469E
:1003F000224600F016F82D1A67EB01084F462246F8
:100400000120002100F00DF817EB00094E41201EDD
:10041000A4F10104DFDC484631462A464346BDE8E4
:10042000F09F202A04DB203A00FA02F100207047F6
:100430009140C2F1200320FA03F319439040704722
:10044000202A06DBCB17203A41FA02F043EAE07398
:1004500006E041FA02F3D040C2F120029140084385
:10046000194670470029A8BF7047401C490008BFC3
:1004700020F00100704710B4B0FA80FC00FA0CF0D4
:1004800050EA010404BF10BC704749B1CCF120040C
:1004900021FA04F411FA0CF118BF01212143084399
:1004A000A3EB0C01CB1D4FEA00614FEA102042BFC5
:1004B000002010BC704700EBC35010440029A4BFBB
:1004C00010BC7047401C490008BF20F0010010BC60
:1004D000704710B5141E73F1000408DA401C41F196
:1004E000000192185B411A4301D120F0010010BDB8
:1004F0002DE9F04D92469B4611B1B1FA81F202E02E
:10050000B0FA80F220329046FFF78BFF04460F4688
:1005100040EA0A0041EA0B0153465A46084313D009
:10052000114653EA010019D0C8F14002504600F0CC
:1005300051F905460E46504659464246FFF771FFAF
:10054000084305D0012004E020463946BDE8F08D7F
:100550000020054346EAE0762C4337430A986305BA
:10056000E40AA0EB08000022FD0A44EA47540A30DE
:1005700002D500200146E9E7010510196941DDE9CE
:10058000084500196941BDE8F04DA2E72DE9FE4F8D
:1005900081EA030404F0004421F0004100944FF08C
:1005A000000B23F0004350EA01045ED052EA03043A
:1005B0005BD0C3F30A54C1F30A552C44A4F2F334BC
:1005C0000194A0FB0254C1F3130141F48011C3F361
:1005D000130343F4801301FB024400FB034E840A1F
:1005E000970A44EA815447EA8357A4FB07680295B7
:1005F0008D0A05FB07854FEA932C04FB0C54270555
:10060000029D4FEA065847EA1637B5EB08056EEB30
:10061000070C870E920E47EA811742EA8312A7FB66
:100620000201B6EB0B0164EB00042B0D43EA0C3323
:100630005E1844EB1C50DA465146E7FB0201C5F355
:1006400013044FEA0B3343EA14534FEA0432019C7C
:1006500043EA0603A4F10C040294009CCDE900B423
:10066000FFF746FF03B0BDE8F08F00200146F9E731
:100670002DE9F04D81EA030404F0004B21F0004520
:1006800014464FF0000A23F0004150EA050220D042
:1006900054EA01021DD0C5F30A570246C5F31303FD
:1006A000C1F31300C1F30A5640F4801543F48013DC
:1006B000A7EB0608101BD64608F2FD3873EB0500C1
:1006C00002D308F1010801E092185B41B8F1000F74
:1006D00003DA00200146BDE8F08D00204FF48011C0
:1006E000064684460EE0171B73EB050705D3121B65
:1006F00063EB050306434CEA010C49084FEA30005E
:1007000092185B4150EA0107EDD152EA030012D082
:1007100082EA040083EA0501084305D0101BAB41BF
:1007200006D20122002306E000224FF0004302E03F
:100730006FF0010253101AEB06004CEB085110EB5E
:100740000A0041EB0B01BDE8F04DFFF7C2BEC1F35B
:100750000A52C1F3130140F2FF3341F480119A426F
:1007600002DA00200146704740F233439A42A2F277
:10077000334202DC524200F02DB8FFF752BE0000B7
:1007800030B5041E71F1000404DB4FF00044404218
:1007900064EB0101141E73F1000405DB1C464FF0ED
:1007A0000043524263EB0403994208BF904230BDBC
:1007B000064C074D06E0E06840F0010394E80700AE
:1007C00098471034AC42F6D3FFF7F4FCB819000890
:1007D000D8190008202A04DB203A21FA02F000216F
:1007E000704721FA02F3D040C2F120029140084341
:1007F0001946704700BFFEE7704700BFFEE700BF25
:10080000FEE7704710B5002807DA0A07140E054AFC
:1008100000F00F031B1FD45403E00A07130E024A13
:10082000135410BD18ED00E000E400E0704770477D
:1008300010B500F0D7FC10BD08B52D48006840F495
:1008400070002B4908602B48006840F001002949DE
:10085000086028480830006840F0800025490831C9
:1008600008600020009002E00098401C00904CF2CC
:10087000503100988842F7D31E480830006840F095
:1008800090001C49083108600020009002E00098A8
:10089000401C00904CF2503100988842F7D3154824
:1008A0000830006820F00300124908310860114840
:1008B0000068114908400F4908600846006820F4A4
:1008C0008020086000200B490831086000BF0948FB
:1008D0000830006800200028F9D108480549091DA2
:1008E0000860002003490C31086000F0B9FE08BD23
:1008F00088ED00E000380240FFFFF6FE10300024D3
:1009000000BFFEE70FB4054B10B503A9044A0298D7
:1009100000F0DAF810BC5DF814FB0000FD110008CF
:100920000800002002E008C8121F08C1002AFAD1FE
:1009300070477047002001E001C1121F002AFBD15F
:10094000704700002DE9FF5F82B00021DDE904302F
:10095000020DDDF840B0034318D044F61050A2F267
:10096000FF3242431514119801281FD0A5EB0B004C
:10097000401C5FEA000A4FF000064E4FDFF8389146
:10098000B046504615D5CAF1000413E01198012471
:100990004AA3012801D16FEA0B010298119AC0E91C
:1009A0000031C0E9024206B0BDE8F09FCBF1000083
:1009B000DFE704460021404A491842EB0450CDE9E4
:1009C000001012E0E00707D032463B464046494659
:1009D000FFF7DCFD8046894632463B461046194605
:1009E000FFF7D4FD06460F466410002CEAD1DDE97E
:1009F0000401DDE90023BAF1000F06DAFFF7C6FDB6
:100A000042464B46FFF7C2FD05E0FFF731FE424686
:100A10004B46FFF72DFE04460E460022284BFFF7FB
:100A2000AFFE03D84FF0FF30014607E00022254B10
:100A300020463146FFF7D8FBFFF789FE102409E076
:100A4000002C0ADB0A220023FFF7BAFC039B30329A
:100A50001A55641E50EA0102F2D1641C039AC4F1D3
:100A600011031444119A012A03D0012208430DD125
:100A70000AE0084304D000204FF0110B119072E7F8
:100A8000A3EB0B056D1E0DE05B4504DD4FF000028E
:100A900005F1010504E003DA4FF00002A5F10105BC
:100AA000002AECD002981199C0E90231C0E9004552
:100AB00079E70000000014400000F03F3000000023
:100AC0000000F0430000E03F2DE9FF4F95B09A464B
:100AD000884606460025EEE1252877D100242746E2
:100AE000F94A0121039400E0044316F8013F203B3A
:100AF00001FA03F01042F7D130782A2811D06FF0B4
:100B00002F033078A0F13002092A16D8039A44F056
:100B1000020402EB820203EB42021044761C0390B3
:100B2000EFE758F8042B0392002A03DA504244F40A
:100B30000054039044F00204761C30782E2816D11D
:100B400016F8010F44F004042A280DD06FF02F028C
:100B50003078A0F13003092B09D807EB870302EBAB
:100B60004303C718761CF3E758F8047B761C3078EB
:100B70006C280FD006DC4C2817D068280DD06A28C6
:100B800014D104E0742810D07A280FD10DE044F479
:100B900000140AE044F4801401E044F44014727834
:100BA000824202D104F58014761C761C30786628C7
:100BB0000BD013DC582877D009DC002875D04528E5
:100BC000F6D04628F4D047281AD193E118E06328DC
:100BD00035D0642879D0652812D18BE1702873D084
:100BE00008DC6728F1D069286FD06E280DD06F28F7
:100BF00006D1ACE073282CD0752874D0782853D057
:100C00005246179990476D1C54E1C4F302500228D4
:100C100009D003280DD0D8F8001004280DD00D609D
:100C200008F1040846E1D8F80010EA17C1E90052BB
:100C3000F6E7D8F800100D80F2E70D70F0E718F82D
:100C4000041B8DF8001000208DF80100EB460120F8
:100C500003E058F804BB4FF0FF3061074FF000018C
:100C600002D40DE009F101018946B9420FDA81454C
:100C7000F8DB1BF809100029F4D108E009F10101A3
:100C800089468142FADB1BF809100029F6D1039846
:100C90005346A0EB090721463846179A00F080FA20
:100CA000284400EB090507E044E008E10DE01BF8EB
:100CB000010B524617999047B9F10109F7D25346F3
:100CC00021463846179AF2E039E00A21C4F302526D
:100CD0004FF0000B0091022A06D058F8040BC11700
:100CE000032A09D00AE023E008F1070020F00702F8
:100CF000F2E80201904605E000B2C117042A01D1D2
:100D000040B2C117002906DA0A460021404261EBD1
:100D100002012D2202E0220504D52B228DF80420A9
:100D2000012203E0E20701D02022F7E7914657E0D5
:100D30000A2100E010214FF0000B00910BE0102180
:100D40004FF0000B44F004040827009103E0082052
:100D50004FF0000B0090C4F30252022A05D058F85D
:100D6000040B0021032A08D008E008F1070020F056
:100D70000702F2E80201904603E080B2042A00D1A3
:100D8000C0B24FF0000922072AD53278702A07D066
:100D9000DDF800C08CF0100C5CEA0B0C05D00EE006
:100DA00040228DF80420012208E050EA010306D019
:100DB00030238DF804308DF8052002229146009BE7
:100DC00083F0080353EA0B030AD150EA010201D170
:100DD000620705D530228DF804204FF001097F1EEF
:100DE0003278582A04D039A20C920CAA02920BE055
:100DF0003BA2F9E75B46009AFFF7E2FA0C9B9B5C8B
:100E0000029A521E0292137050EA0102F2D1029825
:100E100004A9081A00F1200B600702D524F48034DD
:100E200000E001275F4502DDA7EB0B0000E000209A
:100E300000EB0B01009003984944401A0390E00333
:100E400006D453462146179A039800F0A9F90544A1
:100E5000002706E001A85246C05D179990476D1C17
:100E60007F1C4F45F6DBE0030CD553462146179A0D
:100E7000039800F095F9054404E030205246179994
:100E800090476D1C0099481E00900029F5DC08E091
:100E90000298029952460078491C0291179990478E
:100EA0006D1CBBF10001ABF1010BF1DC5BE100F06B
:100EB00065F90544761C307800287FF40DAE19B032
:100EC0002846BDE8F08F0000092801003031323398
:100ED0003435363738396162636465660000000076
:100EE0003031323334353637383941424344454660
:100EF00000000000600700D4062708F1070020F07A
:100F00000700F0E80223804603F0004C5FEA0C0083
:100F100001D097A009E0200501D596A005E0E007E3
:100F200001D095A001E0AFF24C001390307823F08F
:100F3000004365280CD006DC452809D046281DD082
:100F400047287FD13BE0662818D067287AD136E061
:100F50000021112F01DB112000E0781CCDE90001F8
:100F600004A90CA8FFF7EEFCDDE90D010C9A4FF087
:100F7000000B07F10109109200914EE04FF0004084
:100F80000097CDE9011004A90CA8FFF7DBFCDDE90F
:100F90000D020C9B0F994FF0000B9146109300929D
:100FA00011B9791C00EB0109B7EB090003D4C0F1BA
:100FB000FF3B07F10109A9EB0700019042E0012F77
:100FC00000DA01270021112F01DD112000E0384651
:100FD000CDE9000104A90CA8FFF7B4FCDDE90D017F
:100FE0000C9A00914FF0000BB946109221070FD4D4
:100FF000009A4A4503DA914601E0A9F10109B9F1E5
:10100000010F05DD109AA9F10101515C3029F4D0DE
:10101000B84202DA10F1040F03DA0121CDE9011020
:1010200010E0002803DC8344A9EB000102E0411C2E
:10103000494500DD8946A0EB0B00401C01904FF0B4
:1010400000400290200705D40198484502DB4FF08C
:10105000FF30019000208DF84B0002980DF14B07F6
:10106000B0F1004F25D002200C902B200D9002985B
:1010700000280CDA404202902D200D9007E00A2152
:101080000298FFF787F93031029007F8011D0C999B
:10109000481E0C900029F2DC02980028EFD1791E3E
:1010A0000D980870307800F0200040F0450007F8F7
:1010B000020D11A8C01BC01D02901398007800B14A
:1010C000012000EB0901019801EBE0710298014455
:1010D0000398401A401E0390E00306D4534621466D
:1010E000179A039800F05CF805441398007818B13B
:1010F0005246179990476D1CE00323D5534621466D
:10110000179A039800F04CF805441BE0BBF1000F60
:1011100007DB0098584504DD1098179910F80B006C
:1011200001E0179930205246904701980BF1010BCE
:10113000401E05F10105019004D12E205246179959
:1011400090476D1CB9F10001A9F10109DEDC05E051
:1011500017F8010B5246179990476D1C0299481ECB
:1011600002900029F4DC53462146179A03989EE624
:101170002D0000002B000000200000002DE9F041B0
:10118000044600251E461746880404D405E0394667
:101190002020B0476D1C641EF9D52846BDE8F081BB
:1011A0002DE9F041044600251E469046C80301D5AE
:1011B000302700E02027880404D505E04146384662
:1011C000B0476D1C641EF9D52846BDE8F0810000CB
:1011D0000349086000BF024909680029FBD1704734
:1011E000000000200448006820B103480068401E49
:1011F00001490860704700000000002070B50446F7
:101200000D46E0B200F0B0FB204670BDF0B50346DD
:101210001C6A5D6A00200DE00126864016403EB142
:1012200087000F26BE40B443860001FA06F6344319
:10123000461CB0B20828EFD3082011E001268640F2
:1012400016405EB1A0F10806B7000F26BE40B543B8
:10125000A0F10806B60001FA06F63543461CB0B206
:101260001028EBD31C625D62F0BDF0B504460D465C
:1012700016462168E268002019E0012787401F40D8
:101280009FB14FEA400C032707FA0CF7B943470018
:1012900005FA07F739434FEA400C032707FA0CF722
:1012A000BA43470006FA07F73A43471CB8B210287A
:1012B000E3D32160E260F0BDF0B50C461546012C89
:1012C00003D146681E43466002E046689E4346607E
:1012D000826800210DE001268E401E403EB14F0085
:1012E0000326BE40B2434E0005FA06F632434E1CBA
:1012F000B1B21029EFD38260F0BD000010B540F606
:10130000034000F0F9F88023002201210448FFF790
:10131000ACFF8023022200210148FFF7CDFF10BD62
:10132000000C02402DED048B00249FED1D0A10EEF1
:10133000105A00F099F9FFF7E1FF4FF4165000F052
:10134000B5FA2BE00120174908604FF47A70FFF7D7
:101350003FFF00201449C1F89C024FF47A70FFF758
:1013600037FF601C84B22846FEF7E5FF41EC190BFD
:101370009FED0E0B53EC102BFEF736FF41EC180BD4
:10138000FEF7ECFF05462846FEF7D5FF41EC180BAB
:1013900053EC182B214607A0FFF7B4FAD2E7000060
:1013A000000000009C82414200804142295C8FC2C3
:1013B000F528BC3F7569636F756E74203D20256408
:1013C0002C66636F756E74203D20252E32660D0AE3
:1013D000000000002DE9F04F8CB0064600200A9076
:1013E0003EA090E8004CC068CDE905BECDF810A045
:1013F00007900FF2EC0ADAE9000ACDE9020A0FF2CF
:10140000E00ADAE9000ACDE9000A38480068C0F3CA
:1014100081000B900B9820B1012804D0022828D11C
:1014200003E0334927E0334925E03048001F0068D6
:1014300000F03F072D48001F0068C0F3881C2B48B0
:10144000001F0068C0F30140401C4FEA40092748D4
:10145000001F006800F48008B8F5800F01D1254B0B
:1014600000E0234BB3FBF7F000FB0CF0B0FBF9F10D
:1014700001E01F4900BF00BF1C480068C0F303140F
:1014800004A8055D21FA05F218480068C0F382241B
:1014900002A8055D22FA05F0099014480068C0F31F
:1014A00042341DF8045022FA05F0089036B1012E9E
:1014B00006D0022E06D0032E0AD106E00A9108E0DB
:1014C0000A9206E009980A9003E008980A9000E062
:1014D00000BF00BF0A980CB0BDE8F08F000000000C
:1014E0000000000001020304060708090838024052
:1014F0000024F40040787D01074A02EB9011D1F8F6
:10150000001800F01F0301229A401143024B03EB25
:101510009012C2F80018704700300240074A02EBF0
:101520009011D1F8001800F01F0301229A40914356
:10153000024B03EB9012C2F80018704700300240D3
:10154000074A02EB9011D1F8001800F01F030122A6
:101550009A401143024B03EB9012C2F800187047F7
:1015600000300240002000213A4A126842F48032E2
:10157000384B1A6000BF401C364A126802F4003132
:1015800019B94FF6FF729042F5D1324A126802F44F
:1015900000320AB900BFFEE72E4A4032126842F01C
:1015A00080522C4B40331A602B4A126842F440425E
:1015B000294B1A60274A08321268264B08331A60F2
:1015C0001A46126842F400421A601A46126842F43F
:1015D000A0521A60214A1B1F1A601A1F126842F09B
:1015E00080721B1F1A6000BF1A4A126802F0007254
:1015F000002AF9D0184A126842F48032164B1A6059
:1016000000BF154A526802F48032002AF9D0124A0B
:10161000126842F40032104B1A6000BF0E4A526842
:1016200002F40032002AF9D00A4A0832126822F085
:101630000302084B08331A601A46126842F002028D
:101640001A6000BF034A0832126802F00802002A3A
:10165000F8D0704700380240007000401978400A06
:1016600010B5FFF77FFF10BD10B5124800684FF4AA
:101670007A71B0FBF1F4601EB0F1807F01D30120DC
:101680000FE0601E4FF0E02148610F214FF0FF3066
:10169000FFF7B8F800204FF0E021886107200861CB
:1016A000002008B100BFFEE70021481EFFF7AAF89E
:1016B00010BD0000040000202DE9F04704460D464F
:1016C0000027B846B94600263349601A8C4235D007
:1016D0000CDC32482044E8B1B0F5806F1FD0B0F583
:1016E000006F21D0B0F5406F32D122E0B0F5806FAD
:1016F00029D0B0F5184F03D0B0F51C4F28D104E025
:101700000320FFF767FE074623E00320FFF762FE92
:1017100007461EE00220FFF75DFE074619E00220A3
:10172000FFF758FE074614E00220FFF753FE074676
:101730000FE00220FFF74EFE07460AE00220FFF707
:1017400049FE074605E00220FFF744FE074600E099
:1017500000BF00BFE06800F4004070B1780000EB0B
:101760005500B0FBF5F64FF6F07006EA0008C6F338
:10177000420948EA0900A0600CE007EB5500B0FB05
:10178000F5F64FF6F07006EA000806F00F0948EA91
:101790000900A060BDE8F0870078004000BCFFBFF2
:1017A000C1F308024260704710B504463349601A1D
:1017B0008C424DD00CDC32482044E0B1B0F5806F53
:1017C00022D0B0F5006F31D0B0F5406F52D136E085
:1017D000B0F5806F45D0B0F5184F03D0B0F51C4F71
:1017E00048D11AE040F60410FFF7AAFE40F60410B4
:1017F000FFF794FE3FE040F61100FFF7A1FE40F630
:101800001100FFF78BFE36E040F61200FFF798FE5E
:1018100040F61200FFF782FE2DE040F60510FFF7BC
:101820008FFE40F60510FFF779FE24E040F6130026
:10183000FFF786FE40F61300FFF770FE1BE040F650
:101840001400FFF77DFE40F61400FFF767FE12E07C
:1018500040F61E00FFF774FE40F61E00FFF75EFE26
:1018600009E040F61F00FFF76BFE40F61F00FFF790
:1018700055FE00E000BF00BF10BD00000078004032
:1018800000BCFFBFC16841F40051C160704710B592
:10189000024602EB9110006801F01F040123A340EF
:1018A000184008B1012010BD0020FCE710B5044627
:1018B0004FF44060FFF720FE4FF44060FFF71CFE3E
:1018C00041F20410FFF718FE4FF400720721204880
:1018D000FFF79CFC4FF4806207211D48FFF796FC40
:1018E0004FF40073012202211948FFF7BEFC4FF4A8
:1018F0008063012202211648FFF7B7FC4FF4007302
:10190000022200211248FFF7D7FC4FF48063022225
:1019100000210F48FFF7D0FC0E48FFF745FF214696
:101920000C48FFF7C9FE00210A4800F015F8002115
:10193000084800F039F80021064800F025F805486D
:10194000FFF7A0FF0821034800F026F810BD0000B3
:101950000000024000100140C26822F4C062C26070
:10196000C2680A43C260704710B504462146054864
:10197000FFF716FF00BF07210248FFF788FF002886
:10198000F9D010BD00100140026922F440520261FA
:1019900002690A43026170470A460021C16821F0CA
:1019A00008011143C1607047C26822F48052C260CE
:1019B000C2680A43C2607047D819000800000020BE
:1019C0000C00000024090008E41900080C000020A5
:1019D000040400003409000800000000001C4E0E42
:0419E0000000000003
:04000005080001AD41
:00000001FF
