:020000040800F2
:1000000010040020C50100087D02000875020008E8
:10001000790200080D020008C50300080000000076
:10002000000000000000000000000000AB0200081B
:100030001102000800000000A9020008AD0200083B
:10004000DF010008DF010008DF010008DF01000810
:10005000DF010008DF01000815020008DF010008C9
:10006000DF010008DF010008DF010008DF010008F0
:10007000DF010008DF010008DF010008DF010008E0
:10008000DF010008DF010008DF010008DF010008D0
:10009000DF010008DF010008DF010008DF010008C0
:1000A000DF010008DF010008DF010008DF010008B0
:1000B000DF010008DF010008DF010008DF010008A0
:1000C000DF010008DF010008DF010008DF01000890
:1000D000DF010008DF010008DF010008DF01000880
:1000E000DF010008DF010008DF010008DF01000870
:1000F000DF010008DF010008DF010008DF01000860
:10010000DF010008DF010008DF010008DF0100084F
:10011000DF010008DF0100087D030008DF0100089F
:10012000DF010008DF010008DF010008DF0100082F
:10013000DF010008DF010008DF010008DF0100081F
:10014000DF010008DF010008DF010008DF0100080F
:10015000DF010008DF010008DF010008DF010008FF
:10016000DF010008DF010008DF010008DF010008EF
:10017000DF010008DF010008DF01000800000000C7
:10018000DF010008DF010008DF010008DF010008CF
:10019000DF010008DF010008DF01000800000000A7
:1001A000DF010008DF010008DF010008DFF810D0E0
:1001B00000F01AF80048004719070008AFF3008064
:1001C000100400200648804706480047FEE7FEE787
:1001D000FEE7FEE7FEE7FEE7FEE7FEE7FEE7FEE7F7
:1001E000B5020008AD010008064C074D06E0E068C6
:1001F00040F0010394E8070098471034AC42F6D36E
:10020000FFF7D8FF241100084411000800BFFEE7E3
:100210007047000010B5012000F0A8F9012813D1A3
:1002200001210A4800F0EDF9012807D18021084892
:1002300000F0E5F907A000F0C7F802E009A000F01F
:10024000C3F8012000F08CF910BD0000000002404E
:10025000000C02406B6579207072657373210D0A82
:10026000000000006B65792072656C656173652123
:100270000D0A000000BFFEE700BFFEE77047000068
:1002800010B5002807DA0A07140E054A00F00F031C
:100290001B1FD45403E00A07130E024A135410BD67
:1002A00018ED00E000E400E07047704710B500F082
:1002B000E5F810BD08B52D48006840F470002B49E2
:1002C00008602B48006840F0010029490860284870
:1002D0000830006840F0800025490831086000209F
:1002E000009002E00098401C00904CF250310098C1
:1002F0008842F7D31E480830006840F090001C493F
:10030000083108600020009002E00098401C009036
:100310004CF2503100988842F7D3154808300068F5
:1003200020F00300124908310860114800681149A3
:1003300008400F4908600846006820F480200860E3
:1003400000200B490831086000BF094808300068E8
:1003500000200028F9D108480549091D086000203F
:1003600003490C31086000F009FC08BD88ED00E08D
:1003700000380240FFFFF6FE1030002410B50121C6
:10038000084800F042FD01280AD10121054800F08B
:1003900039FD8021044800F032F904A000F014F87F
:1003A00010BD000000100040000C02404253505F9E
:1003B00054494D45525F49525148414E444C455273
:1003C000210D0A0000BFFEE7014A024900F013B800
:1003D000910500080800002002E008C8121F08C1AB
:1003E000002AFAD170477047002001E001C1121FB6
:1003F000002AFBD170472DE9F04116460F4604460E
:10040000002503E03946B047641C6D1C20780028A5
:10041000F8D12846BDE8F0817FB505460C4641F28B
:10042000040000F08FFA4FF0807000F0C1FA12481B
:1004300000F0D0FB681E80B2ADF800000020ADF8DF
:100440000200ADF80400601E02900020ADF8060026
:100450008DF80C006946084800F084FC0222032154
:10046000362000F071F90121034800F0C7FC024872
:1004700000F072FC7FBD00000010004004480068DE
:1004800020B103480068401E014908607047000021
:100490000000002010B52D4B1B6883432B4C2360BC
:1004A000231D1B688343241D2360231D1B68834376
:1004B000241D2360231D1B688343241D236011B169
:1004C00001290ED105E0214B1B6803431F4C23601B
:1004D00008E01E4B1B1D1B6803431C4C241D23609E
:1004E00000E000BF00BF32B1012A11D0022A1CD0A7
:1004F000032A27D127E0154B08331B680343134C0D
:1005000008342360231D1B688343241D23601BE0E4
:100510000E4B08331B6883430C4C08342360231DA7
:100520001B680343241D23600EE0084B08331B683F
:100530000343064C08342360231D1B680343241D1A
:10054000236001E000BF00BF00BF10BD003C0140C0
:10055000024909680143014A11607047003C0140AB
:100560000149086070470000143C014001460748FB
:10057000006800EA010205481438006800EA010337
:1005800012B10BB1012070470020FCE7143C014080
:1005900070B504460D46E0B200F09CFD204670BDEB
:1005A000F0B503461C6A5D6A00200DE00126864016
:1005B00016403EB187000F26BE40B443860001FAC4
:1005C00006F63443461CB0B20828EFD3082011E0E9
:1005D0000126864016405EB1A0F10806B7000F263E
:1005E000BE40B543A0F10806B60001FA06F6354351
:1005F000461CB0B21028EBD31C625D62F0BDC16234
:10060000704702461069084008B101207047002079
:10061000FCE7F0B504460D4616462168E268002066
:1006200019E0012787401F409FB14FEA400C032784
:1006300007FA0CF7B943470005FA07F739434FEAC1
:10064000400C032707FA0CF7BA43470006FA07F7EE
:100650003A43471CB8B21028E3D32160E260F0BDF2
:10066000F0B50C461546012C03D146681E43466082
:1006700002E046689E434660826800210DE0012644
:100680008E401E403EB14F000326BE40B2434E0096
:1006900005FA06F632434E1CB1B21029EFD3826040
:1006A000F0BD000010B54FF4406000F04BF941F28E
:1006B0000E1000F047F90123022200210B48FFF73A
:1006C000A8FF03221146062000F03EF8002108464C
:1006D00000F080F9022200210120FFF7DBFE01205B
:1006E000FFF736FF0120FFF73BFF10BD000002407F
:1006F00010B540F6034000F025F9802300220121C7
:100700000448FFF786FF8023022200210148FFF7FB
:10071000A7FF10BD000C024000BF00BF4FF4A06057
:1007200000F074F800F02EFAFFF7E2FFFFF7BAFFCF
:100730004FF4165000F070FC42F210714800FFF7C1
:100740006BFE00BFFEE700002DE9F04103460D46B9
:10075000164600240027A0462A48006800F4E060FE
:10076000B0F5E06F03D100BF4FF0040830E025483A
:10077000006800F4E060B0F5C06F03D101274FF0CE
:10078000030825E01F48006800F4E060B0F5A06FA2
:1007900002D10227B8461BE01A48006800F4E06066
:1007A000B0F5806F03D103274FF0010810E0154822
:1007B000006800F4E060B0F5407F03D104274FF0FB
:1007C000000805E04FF4A06000F020F80227B846CA
:1007D000C7F1040005FA00F4C8F104010F20C84075
:1007E0003040044324010848C45403F01F01012091
:1007F00088405911890001F1E021C1F80001BDE8EC
:10080000F08100000CED00E000E400E0024901434B
:10081000024A1160704700000000FA050CED00E08C
:100820002DE9F04F8CB0064600200A903EA090E8DB
:10083000004CC068CDE905BECDF810A007900FF2BE
:10084000EC0ADAE9000ACDE9020A0FF2E00ADAE975
:10085000000ACDE9000A38480068C0F381000B9017
:100860000B9820B1012804D0022828D103E0334995
:1008700027E0334925E03048001F006800F03F07BB
:100880002D48001F0068C0F3881C2B48001F00681B
:10089000C0F30140401C4FEA40092748001F006890
:1008A00000F48008B8F5800F01D1254B00E0234B00
:1008B000B3FBF7F000FB0CF0B0FBF9F101E01F49CE
:1008C00000BF00BF1C480068C0F3031404A8055D06
:1008D00021FA05F218480068C0F3822402A8055DD9
:1008E00022FA05F0099014480068C0F342341DF85C
:1008F000045022FA05F0089036B1012E06D0022EDF
:1009000006D0032E0AD106E00A9108E00A9206E01A
:1009100009980A9003E008980A9000E000BF00BF21
:100920000A980CB0BDE8F08F000000000000000045
:100930000102030406070809083802400024F400F5
:1009400040787D01074A02EB9011D1F8001800F0C1
:100950001F0301229A401143024B03EB9012C2F88D
:100960000018704700300240074A02EB9011D1F89E
:10097000001800F01F0301229A409143024B03EB41
:100980009012C2F80018704700300240074A02EB8C
:100990009011D1F8001800F01F0301229A40114372
:1009A000024B03EB9012C2F800187047003002406F
:1009B0006FF08071884205D1054909680140044AF9
:1009C000116004E0024909680143014A116070475F
:1009D0008C38024070B504460B46CD1701EB957577
:1009E000AD10A1EB8505AE000F25B540E843CD174E
:1009F00001EB9575AD10A1EB8505AD0004FA05F28C
:100A0000CD1701EB9575AD1035B1012D0ED0022D2E
:100A100018D0032D2ED121E0184B1B680340174D31
:100A20002B602B461B6813432B6024E0134B1B1DCC
:100A30001B680340114D2D1D2B602B461B68134373
:100A40002B6018E00D4B08331B6803400B4D083535
:100A50002B602B461B6813432B600CE0074B0C33B9
:100A60001B680340054D0C352B602B461B68134358
:100A70002B6000E000BF00BF70BD000008380140DF
:100A8000002000213A4A126842F48032384B1A6042
:100A900000BF401C364A126802F4003119B94FF603
:100AA000FF729042F5D1324A126802F400320AB95C
:100AB00000BFFEE72E4A4032126842F080522C4BB3
:100AC00040331A602B4A126842F44042294B1A60A4
:100AD000274A08321268264B08331A601A461268F1
:100AE00042F400421A601A46126842F4A0521A6098
:100AF000214A1B1F1A601A1F126842F080721B1FC6
:100B00001A6000BF1A4A126802F00072002AF9D077
:100B1000184A126842F48032164B1A6000BF154A18
:100B2000526802F48032002AF9D0124A126842F464
:100B30000032104B1A6000BF0E4A526802F40032B5
:100B4000002AF9D00A4A0832126822F00302084B40
:100B500008331A601A46126842F002021A6000BF97
:100B6000034A0832126802F00802002AF8D07047DF
:100B700000380240007000401978400A10B5FFF7B5
:100B80007FFF10BD10B5124800684FF47A71B0FBBA
:100B9000F1F4601EB0F1807F01D301200FE0601EF0
:100BA0004FF0E02148610F214FF0FF30FFF768FB65
:100BB00000204FF0E021886107200861002008B183
:100BC00000BFFEE70021481EFFF75AFB10BD0000E2
:100BD0000400002010B504465C49601A8C426FD0B6
:100BE00019DC5B49A4EB01008C424ED009DCB4F166
:100BF000804F2ED057482044A0B3B0F5806F72D1FB
:100C00003AE0B0F5806F49D0B0F5006F4FD0B0F545
:100C1000406FF4D17BE0B0F5923F5BD009DCB0F5DA
:100C2000806F73D0B0F5644F0AD0B0F5684F5AD1D9
:100C300047E0B0F5943F57D0B0F5963F53D15CE014
:100C40004FF41060FFF7A2FE4FF41060FFF78CFE28
:100C500079E04FF40060FFF799FE4FF40060FFF772
:100C600083FE70E0FFE740F60100FFF78FFE40F6DD
:100C70000100FFF779FE66E040F60200FFF786FE0E
:100C800040F60200FFF770FE5DE040F60300FFF75C
:100C90007DFE40F60300FFF767FE54E040F60400D7
:100CA000FFF774FE40F60400FFF75EFE4BE040F6EF
:100CB0000500FFF76BFE40F60500FFF755FE42E02A
:100CC0002EE040F60110FFF761FE40F60110FFF73D
:100CD0004BFE38E04FF41160FFF758FE4FF41160FF
:100CE000FFF742FE2FE02DE040F61110FFF74EFE19
:100CF00040F61110FFF738FE25E040F61210FFF71E
:100D000045FE40F61210FFF72FFE1CE011E040F602
:100D10000600FFF73BFE40F60600FFF725FE12E057
:100D200040F60700FFF732FE40F60700FFF71CFE13
:100D300009E040F60800FFF729FE40F60800FFF73B
:100D400013FE00E000BF00BF10BD0000001C00400B
:100D5000000C004000FCFFBF016841F00101016090
:100D6000704700000A8882621D4A90420ED0B0F19E
:100D7000804F0BD01B4A904208D01B4A904205D0AE
:100D80001A4A904202D01A4A90420BD1026822F0CD
:100D90007002026002684B881A43026002688B8806
:100DA0001A4302608A68C262124A90420AD0124A0A
:100DB000904207D0026822F4407202600268CB8839
:100DC0001A430260064A904202D0094A904201D179
:100DD0000A7B0263426942F00102426170470000EF
:100DE000000001400004004000080040000C0040EA
:100DF000000401400010004000140040C2680A4393
:100E0000C2607047CA43026170470246D06800EA78
:100E100001031069084010B10BB101207047002098
:100E2000FCE700002DE9F04704460D460027B846D0
:100E3000B94600263349601A8C4235D00CDC324862
:100E40002044E8B1B0F5806F1FD0B0F5006F21D01D
:100E5000B0F5406F32D122E0B0F5806F29D0B0F507
:100E6000184F03D0B0F51C4F28D104E00320FFF742
:100E7000D7FC074623E00320FFF7D2FC07461EE01D
:100E80000220FFF7CDFC074619E00220FFF7C8FC5F
:100E9000074614E00220FFF7C3FC07460FE00220DC
:100EA000FFF7BEFC07460AE00220FFF7B9FC074641
:100EB00005E00220FFF7B4FC074600E000BF00BFDA
:100EC000E06800F4004070B1780000EB5500B0FB22
:100ED000F5F64FF6F07006EA0008C6F3420948EA54
:100EE0000900A0600CE007EB5500B0FBF5F64FF6EB
:100EF000F07006EA000806F00F0948EA0900A06051
:100F0000BDE8F0870078004000BCFFBFC1F30802D5
:100F10004260704710B504463349601A8C424DD088
:100F20000CDC32482044E0B1B0F5806F22D0B0F53F
:100F3000006F31D0B0F5406F52D136E0B0F5806F20
:100F400045D0B0F5184F03D0B0F51C4F48D11AE08A
:100F500040F60410FFF71AFD40F60410FFF704FDF9
:100F60003FE040F61100FFF711FD40F61100FFF7DA
:100F7000FBFC36E040F61200FFF708FD40F61200D9
:100F8000FFF7F2FC2DE040F60510FFF7FFFC40F6FE
:100F90000510FFF7E9FC24E040F61300FFF7F6FC2C
:100FA00040F61300FFF7E0FC1BE040F61400FFF7EB
:100FB000EDFC40F61400FFF7D7FC12E040F61E00EF
:100FC000FFF7E4FC40F61E00FFF7CEFC09E040F618
:100FD0001F00FFF7DBFC40F61F00FFF7C5FC00E039
:100FE00000BF00BF10BD00000078004000BCFFBF84
:100FF000C16841F40051C160704710B5024602EB70
:101000009110006801F01F040123A340184008B1AB
:10101000012010BD0020FCE710B504464FF44060ED
:10102000FFF790FC4FF44060FFF78CFC41F2041096
:10103000FFF788FC4FF4007207212048FFF7B0FA51
:101040004FF4806207211D48FFF7AAFA4FF400739E
:10105000012202211948FFF7DCFA4FF480630122D4
:1010600002211648FFF7D5FA4FF40073022200213F
:101070001248FFF7F5FA4FF48063022200210F486F
:10108000FFF7EEFA0E48FFF745FF21460C48FFF741
:10109000C9FE00210A4800F015F80021084800F0B8
:1010A00039F80021064800F025F80548FFF7A0FFB1
:1010B0000821034800F026F810BD0000000002409F
:1010C00000100140C26822F4C062C260C2680A43D4
:1010D000C260704710B5044621460548FFF716FF69
:1010E00000BF07210248FFF788FF0028F9D010BD94
:1010F00000100140026922F44052026102690A4371
:10110000026170470A460021C16821F008011143BD
:10111000C1607047C26822F48052C260C2680A434C
:10112000C260704744110008000000200C0000005D
:10113000D8030008501100080C000020040400002F
:10114000E803000800000000001C4E0E0000000034
:04000005080001AD41
:00000001FF
