:020000040800F2
:1000000010040020C50100087D02000875020008E8
:10001000790200080D020008C50300080000000076
:10002000000000000000000000000000AB0200081B
:100030001102000800000000A9020008AD0200083B
:10004000DF010008DF010008DF010008DF01000810
:10005000DF010008DF01000815020008DF010008C9
:10006000DF010008DF010008DF010008DF010008F0
:10007000DF010008DF010008DF010008DF010008E0
:10008000DF010008DF010008DF010008DF010008D0
:10009000DF010008DF010008DF010008DF010008C0
:1000A000DF010008DF010008DF010008DF010008B0
:1000B000DF010008DF010008DF010008DF010008A0
:1000C000DF010008DF010008DF010008DF01000890
:1000D000DF010008DF010008DF010008DF01000880
:1000E000DF010008DF010008DF010008DF01000870
:1000F000DF010008DF010008DF010008DF01000860
:10010000DF010008DF010008DF010008DF0100084F
:10011000DF010008DF0100087D030008DF0100089F
:10012000DF010008DF010008DF010008DF0100082F
:10013000DF010008DF010008DF010008DF0100081F
:10014000DF010008DF010008DF010008DF0100080F
:10015000DF010008DF010008DF010008DF010008FF
:10016000DF010008DF010008DF010008DF010008EF
:10017000DF010008DF010008DF01000800000000C7
:10018000DF010008DF010008DF010008DF010008CF
:10019000DF010008DF010008DF01000800000000A7
:1001A000DF010008DF010008DF010008DFF810D0E0
:1001B00000F01AF800480047C9060008AFF30080B5
:1001C000100400200648804706480047FEE7FEE787
:1001D000FEE7FEE7FEE7FEE7FEE7FEE7FEE7FEE7F7
:1001E000B5020008AD010008064C074D06E0E068C6
:1001F00040F0010394E8070098471034AC42F6D36E
:10020000FFF7D8FFD4140008F414000800BFFEE77D
:100210007047000010B5012000F080F9012813D1CB
:1002200001210A4800F0C5F9012807D180210848BA
:1002300000F0BDF907A000F0C7F802E009A000F047
:10024000C3F8012000F064F910BD00000000024076
:10025000000C02406B6579207072657373210D0A82
:10026000000000006B65792072656C656173652123
:100270000D0A000000BFFEE700BFFEE77047000068
:1002800010B5002807DA0A07140E054A00F00F031C
:100290001B1FD45403E00A07130E024A135410BD67
:1002A00018ED00E000E400E07047704710B500F082
:1002B000BDF810BD08B52D48006840F470002B490A
:1002C00008602B48006840F0010029490860284870
:1002D0000830006840F0800025490831086000209F
:1002E000009002E00098401C00904CF250310098C1
:1002F0008842F7D31E480830006840F090001C493F
:10030000083108600020009002E00098401C009036
:100310004CF2503100988842F7D3154808300068F5
:1003200020F00300124908310860114800681149A3
:1003300008400F4908600846006820F480200860E3
:1003400000200B490831086000BF094808300068E8
:1003500000200028F9D108480549091D086000203F
:1003600003490C31086000F07BFC08BD88ED00E01B
:1003700000380240FFFFF6FE1030002410B50121C6
:10038000084800F01AFF01280AD10121054800F0B1
:1003900011FF8021044800F00AF904A000F014F8CD
:1003A00010BD000000100040000C02404253505F9E
:1003B00054494D45525F49525148414E444C455273
:1003C000210D0A0000BFFEE7014A024900F013B800
:1003D000410500080C00002002E008C8121F08C1F7
:1003E000002AFAD170477047002001E001C1121FB6
:1003F000002AFBD170472DE9F04116460F4604460E
:10040000002503E03946B047641C6D1C20780028A5
:10041000F8D12846BDE8F0810349086000BF0249D1
:1004200009680029FBD170470000002004480068DB
:1004300020B103480068401E014908607047000071
:100440000000002010B52D4B1B6883432B4C23600C
:10045000231D1B688343241D2360231D1B688343C6
:10046000241D2360231D1B688343241D236011B1B9
:1004700001290ED105E0214B1B6803431F4C23606B
:1004800008E01E4B1B1D1B6803431C4C241D2360EE
:1004900000E000BF00BF32B1012A11D0022A1CD0F7
:1004A000032A27D127E0154B08331B680343134C5D
:1004B00008342360231D1B688343241D23601BE035
:1004C0000E4B08331B6883430C4C08342360231DF8
:1004D0001B680343241D23600EE0084B08331B6890
:1004E0000343064C08342360231D1B680343241D6B
:1004F000236001E000BF00BF00BF10BD003C014011
:10050000024909680143014A11607047003C0140FB
:100510000149086070470000143C0140014607484B
:10052000006800EA010205481438006800EA010387
:1005300012B10BB1012070470020FCE7143C0140D0
:1005400070B504460D46E0B200F09CFF204670BD39
:10055000F0B503461C6A5D6A00200DE00126864066
:1005600016403EB187000F26BE40B443860001FA14
:1005700006F63443461CB0B20828EFD3082011E039
:100580000126864016405EB1A0F10806B7000F268E
:10059000BE40B543A0F10806B60001FA06F63543A1
:1005A000461CB0B21028EBD31C625D62F0BDC16284
:1005B000704702461069084008B1012070470020CA
:1005C000FCE7F0B504460D4616462168E2680020B7
:1005D00019E0012787401F409FB14FEA400C0327D5
:1005E00007FA0CF7B943470005FA07F739434FEA12
:1005F000400C032707FA0CF7BA43470006FA07F73F
:100600003A43471CB8B21028E3D32160E260F0BD42
:10061000F0B50C461546012C03D146681E434660D2
:1006200002E046689E434660826800210DE0012694
:100630008E401E403EB14F000326BE40B2434E00E6
:1006400005FA06F632434E1CB1B21029EFD3826090
:10065000F0BD000010B54FF4406000F0E5F941F244
:100660000E1000F0E1F90123022200210B48FFF7F0
:10067000A8FF03221146062000F040F8002108469A
:1006800000F01AFA022200210120FFF7DBFE012010
:10069000FFF736FF0120FFF73BFF10BD00000240CF
:1006A00010B540F6034000F0BFF98023002201217D
:1006B0000448FFF786FF8023022200210148FFF74C
:1006C000A7FF10BD000C024000BF00BF4FF4A060A8
:1006D00000F076F800F0C8FAFFF7E2FFFFF7BAFF84
:1006E0004FF4165000F070FE42F21071C82000F076
:1006F000A1F801E000F06EF8FCE700002DE9F04100
:1007000003460D46164600240027A0462A480068E6
:1007100000F4E060B0F5E06F03D100BF4FF00408D3
:1007200030E02548006800F4E060B0F5C06F03D108
:1007300001274FF0030825E01F48006800F4E0603F
:10074000B0F5A06F02D10227B8461BE01A48006836
:1007500000F4E060B0F5806F03D103274FF001088B
:1007600010E01548006800F4E060B0F5407F03D168
:1007700004274FF0000805E04FF4A06000F020F8D7
:100780000227B846C7F1040005FA00F4C8F10401D5
:100790000F20C8403040044324010848C45403F0EB
:1007A0001F01012088405911890001F1E021C1F8A1
:1007B0000001BDE8F08100000CED00E000E400E085
:1007C00002490143024A1160704700000000FA0527
:1007D0000CED00E010B51548007878B91448008891
:1007E00000F59670124908800846008842F21071A0
:1007F000884210DD01200D4908700CE00C4800888B
:10080000A0F596700A49088008460088002802DC96
:100810000020064908700648028800214FF08040F9
:1008200000F073FB3220FFF7F7FD10BD0800002039
:100830000A00002030B587B005460C4600F048F8A5
:100840004FF4805000F0F0F84FF0807000F022F983
:100850004FF0804000F09AFB681E80B2ADF80C00AB
:100860000020ADF80E00ADF81000601E05900020CD
:10087000ADF812008DF8180003A94FF0804000F089
:100880004DFC0020ADF804000120ADF800006A46E0
:100890000021800700F016FA002211464FF0804038
:1008A00000F033FB602200214FF0804000F000FB9D
:1008B000002211464FF0804000F03AFB4FF080409C
:1008C00000F0FAF94FF0804000F022FC07B030BD94
:1008D00010B54FF4406000F0A7F820230022022159
:1008E0000748FFF76EFE2023022200210448FFF78D
:1008F0008FFE202201210248FFF72AFE10BD0000D2
:10090000000002402DE9F04F8CB0064600200A900E
:100910003EA090E8004CC068CDE905BECDF810A01F
:1009200007900FF2EC0ADAE9000ACDE9020A0FF2A9
:10093000E00ADAE9000ACDE9000A38480068C0F3A5
:1009400081000B900B9820B1012804D0022828D1F7
:1009500003E0334927E0334925E03048001F0068B1
:1009600000F03F072D48001F0068C0F3881C2B488B
:10097000001F0068C0F30140401C4FEA40092748AF
:10098000001F006800F48008B8F5800F01D1254BE6
:1009900000E0234BB3FBF7F000FB0CF0B0FBF9F1E8
:1009A00001E01F4900BF00BF1C480068C0F30314EA
:1009B00004A8055D21FA05F218480068C0F38224F6
:1009C00002A8055D22FA05F0099014480068C0F3FA
:1009D00042341DF8045022FA05F0089036B1012E79
:1009E00006D0022E06D0032E0AD106E00A9108E0B6
:1009F0000A9206E009980A9003E008980A9000E03D
:100A000000BF00BF0A980CB0BDE8F08F00000000E6
:100A1000000000000102030406070809083802402C
:100A20000024F40040787D01074A02EB9011D1F8D0
:100A3000001800F01F0301229A401143024B03EB00
:100A40009012C2F80018704700300240074A02EBCB
:100A50009011D1F8001800F01F0301229A40914331
:100A6000024B03EB9012C2F80018704700300240AE
:100A7000074A02EB9011D1F8001800F01F03012281
:100A80009A401143024B03EB9012C2F800187047D2
:100A9000003002406FF08071884205D10549096835
:100AA0000140044A116004E0024909680143014A17
:100AB000116070478C38024070B504460B46CD1764
:100AC00001EB9575AD10A1EB8505AE000F25B54086
:100AD000E843CD1701EB9575AD10A1EB8505AD0091
:100AE00004FA05F2CD1701EB9575AD1035B1012D66
:100AF0000ED0022D18D0032D2ED121E0184B1B68EB
:100B00000340174D2B602B461B6813432B6024E0DA
:100B1000134B1B1D1B680340114D2D1D2B602B46D5
:100B20001B6813432B6018E00D4B08331B68034010
:100B30000B4D08352B602B461B6813432B600CE0D4
:100B4000074B0C331B680340054D0C352B602B46BF
:100B50001B6813432B6000E000BF00BF70BD0000A6
:100B600008380140002000213A4A126842F48032DD
:100B7000384B1A6000BF401C364A126802F400313C
:100B800019B94FF6FF729042F5D1324A126802F459
:100B900000320AB900BFFEE72E4A4032126842F026
:100BA00080522C4B40331A602B4A126842F4404268
:100BB000294B1A60274A08321268264B08331A60FC
:100BC0001A46126842F400421A601A46126842F449
:100BD000A0521A60214A1B1F1A601A1F126842F0A5
:100BE00080721B1F1A6000BF1A4A126802F000725E
:100BF000002AF9D0184A126842F48032164B1A6063
:100C000000BF154A526802F48032002AF9D0124A15
:100C1000126842F40032104B1A6000BF0E4A52684C
:100C200002F40032002AF9D00A4A0832126822F08F
:100C30000302084B08331A601A46126842F0020297
:100C40001A6000BF034A0832126802F00802002A44
:100C5000F8D0704700380240007000401964400925
:100C600010B5FFF77FFF10BD10B5124800684FF4B4
:100C70007A71B0FBF1F4601EB0F1807F01D30120E6
:100C80000FE0601E4FF0E02148610F214FF0FF3070
:100C9000FFF7F6FA00204FF0E02188610720086195
:100CA000002008B100BFFEE70021481EFFF7E8FA68
:100CB00010BD000004000020016841F080010160C7
:100CC0007047000010B531B101293FD002297DD015
:100CD00003297CD1BFE0036A23F001030362836927
:100CE00023F003038361036A148823430362036AC6
:100CF00023F002030362036A9488234303626A4B6E
:100D0000984202D0694B98421FD1036A23F0040332
:100D10000362036A548823430362036A23F00803CF
:100D20000362036AD48823430362436823F4807315
:100D300043604368148923434360436823F400738A
:100D400043604368548923434360ABE0036A23F064
:100D500010030362836923F440738361036A148878
:100D600043EA04130362036A23F020030362036A65
:100D7000948843EA041303624B4B984202D04B4BD6
:100D8000984226D1036A23F040030362036A548821
:100D900043EA04130362036A23F080030362036AD5
:100DA000D48843EA04130362436823F480634360F6
:100DB0004368148943EA84034360436823F400636F
:100DC00043604368548943EA840301E002E068E039
:100DD000436067E0036A23F480730362C36923F00E
:100DE0000303C361036A148843EA04230362036AAA
:100DF00023F400730362036A948843EA04230362C2
:100E0000294B984202D0294B984223D1036A23F4FC
:100E100080630362036A548843EA04230362036A1B
:100E200023F400630362036AD48843EA0423036261
:100E3000436823F4805343604368148943EA0413EE
:100E40004360436823F4005343604368548943EA92
:100E50000413436026E0036A23F480530362C369EA
:100E600023F44073C361036A148843EA04330362C2
:100E7000036A23F400530362036A948843EA043349
:100E80000362094B984202D0084B984208D143684C
:100E900023F4804343604368148943EA8413436026
:100EA00000E000BF00BF10BD000001400004014091
:100EB00031B101290CD0022913D0032922D118E025
:100EC000836923F0700383618369134383611AE0AC
:100ED000836923F4E0438361836943EA02238361E6
:100EE00011E0C36923F07003C361C3691343C36195
:100EF00009E0C36923F4E043C361C36943EA022301
:100F0000C36100E000BF00BF704731B1012906D0C6
:100F1000022906D0032908D105E0426306E0826376
:100F200004E0C26302E0026400E000BF00BF70475B
:100F300031B101290CD0022913D0032922D118E0A4
:100F4000836923F0080383618369134383611AE093
:100F5000836923F400638361836943EA0223836125
:100F600011E0C36923F00803C361C3691343C3617C
:100F700009E0C36923F40063C361C36943EA022340
:100F8000C36100E000BF00BF7047000010B5044619
:100F90005C49601A8C426FD019DC5B49A4EB0100FC
:100FA0008C424ED009DCB4F1804F2ED057482044FB
:100FB000A0B3B0F5806F72D13AE0B0F5806F49D040
:100FC000B0F5006F4FD0B0F5406FF4D17BE0B0F5D5
:100FD000923F5BD009DCB0F5806F73D0B0F5644F01
:100FE0000AD0B0F5684F5AD147E0B0F5943F57D0DA
:100FF000B0F5963F53D15CE04FF41060FFF738FD39
:101000004FF41060FFF722FD79E04FF40060FFF726
:101010002FFD4FF40060FFF719FD70E0FFE740F689
:101020000100FFF725FD40F60100FFF70FFD66E028
:1010300040F60200FFF71CFD40F60200FFF706FD38
:101040005DE040F60300FFF713FD40F60300FFF7F5
:10105000FDFC54E040F60400FFF70AFD40F60400F2
:10106000FFF7F4FC4BE040F60500FFF701FD40F60A
:101070000500FFF7EBFC42E02EE040F60110FFF721
:10108000F7FC40F60110FFF7E1FC38E04FF4116087
:10109000FFF7EEFC4FF41160FFF7D8FC2FE02DE0D6
:1010A00040F61110FFF7E4FC40F61110FFF7CEFCFC
:1010B00025E040F61210FFF7DBFC40F61210FFF7B8
:1010C000C5FC1CE011E040F60600FFF7D1FC40F63D
:1010D0000600FFF7BBFC12E040F60700FFF7C8FC74
:1010E00040F60700FFF7B2FC09E040F60800FFF702
:1010F000BFFC40F60800FFF7A9FC00E000BF00BFFE
:1011000010BD0000001C0040000C004000FCFFBFB0
:10111000016841F001010160704700000A888262A5
:101120001D4A90420ED0B0F1804F0BD01B4A904226
:1011300008D01B4A904205D01A4A904202D01A4A5F
:1011400090420BD1026822F07002026002684B8864
:101150001A43026002688B881A4302608A68C2627E
:10116000124A90420AD0124A904207D0026822F4F2
:10117000407202600268CB881A430260064A9042BD
:1011800002D0094A904201D10A7B0263426942F0CF
:10119000010242617047000000000140000400406D
:1011A00000080040000C0040000401400010004016
:1011B00000140040CA43026170470246D06800EA4A
:1011C00001031069084010B10BB1012070470020E5
:1011D000FCE700002DE9F04704460D460027B8461D
:1011E000B94600263349601A8C4235D00CDC3248AF
:1011F0002044E8B1B0F5806F1FD0B0F5006F21D06A
:10120000B0F5406F32D122E0B0F5806F29D0B0F553
:10121000184F03D0B0F51C4F28D104E00320FFF78E
:1012200071FB074623E00320FFF76CFB07461EE037
:101230000220FFF767FB074619E00220FFF762FB79
:10124000074614E00220FFF75DFB07460FE002208F
:10125000FFF758FB07460AE00220FFF753FB07465B
:1012600005E00220FFF74EFB074600E000BF00BF8D
:10127000E06800F4004070B1780000EB5500B0FB6E
:10128000F5F64FF6F07006EA0008C6F3420948EAA0
:101290000900A0600CE007EB5500B0FBF5F64FF637
:1012A000F07006EA000806F00F0948EA0900A0609D
:1012B000BDE8F0870078004000BCFFBFC1F3080222
:1012C0004260704710B504463349601A8C424DD0D5
:1012D0000CDC32482044E0B1B0F5806F22D0B0F58C
:1012E000006F31D0B0F5406F52D136E0B0F5806F6D
:1012F00045D0B0F5184F03D0B0F51C4F48D11AE0D7
:1013000040F60410FFF7B4FB40F60410FFF79EFB15
:101310003FE040F61100FFF7ABFB40F61100FFF78E
:1013200095FB36E040F61200FFF7A2FB40F61200F4
:10133000FFF78CFB2DE040F60510FFF799FB40F618
:101340000510FFF783FB24E040F61300FFF790FB46
:1013500040F61300FFF77AFB1BE040F61400FFF79E
:1013600087FB40F61400FFF771FB12E040F61E0009
:10137000FFF77EFB40F61E00FFF768FB09E040F632
:101380001F00FFF775FB40F61F00FFF75FFB00E053
:1013900000BF00BF10BD00000078004000BCFFBFD0
:1013A000C16841F40051C160704710B5024602EBBC
:1013B0009110006801F01F040123A340184008B1F8
:1013C000012010BD0020FCE710B504464FF440603A
:1013D000FFF72AFB4FF44060FFF726FB41F20410B1
:1013E000FFF722FB4FF4007207212048FFF7B0F807
:1013F0004FF4806207211D48FFF7AAF84FF40073ED
:10140000012202211948FFF7DCF84FF48063012222
:1014100002211648FFF7D5F84FF40073022200218D
:101420001248FFF7F5F84FF48063022200210F48BD
:10143000FFF7EEF80E48FFF745FF21460C48FFF78F
:10144000C9FE00210A4800F015F80021084800F004
:1014500039F80021064800F025F80548FFF7A0FFFD
:101460000821034800F026F810BD000000000240EB
:1014700000100140C26822F4C062C260C2680A4320
:10148000C260704710B5044621460548FFF716FFB5
:1014900000BF07210248FFF788FF0028F9D010BDE0
:1014A00000100140026922F44052026102690A43BD
:1014B000026170470A460021C16821F0080111430A
:1014C000C1607047C26822F48052C260C2680A4399
:1014D000C2607047F41400080000002010000000F3
:1014E000D8030008041500081000002000040000C4
:1014F000E80300080000000000C2EB0B0000000041
:0415000000000000E7
:04000005080001AD41
:00000001FF
