:020000040800F2
:1000000008040020C50100081B02000813020008B4
:10001000170200080D020008190300080000000084
:10002000000000000000000000000000470200087F
:100030001102000800000000450200084902000803
:10004000DF010008DF010008DF010008DF01000810
:10005000DF010008DF010008DF010008DF01000800
:10006000DF010008DF010008DF010008DF010008F0
:10007000DF010008DF010008DF010008DF010008E0
:10008000DF010008DF010008DF010008DF010008D0
:10009000DF010008DF010008DF010008DF010008C0
:1000A000DF010008DF010008DF010008DF010008B0
:1000B000DF010008DF010008DF010008DF010008A0
:1000C000DF010008DF010008DF010008DF01000890
:1000D000DF010008DF010008DF010008DF01000880
:1000E000DF010008DF010008DF010008DF01000870
:1000F000DF010008DF010008DF010008DF01000860
:10010000DF010008DF010008DF010008DF0100084F
:10011000DF010008DF010008DF010008DF0100083F
:10012000DF010008DF010008DF010008DF0100082F
:10013000DF010008DF010008DF010008DF0100081F
:10014000DF010008DF010008DF010008DF0100080F
:10015000DF010008DF010008DF010008DF010008FF
:10016000DF010008DF010008DF010008DF010008EF
:10017000DF010008DF010008DF01000800000000C7
:10018000DF010008DF010008DF010008DF010008CF
:10019000DF010008DF010008DF01000800000000A7
:1001A000DF010008DF010008DF010008DFF810D0E0
:1001B00000F01AF800480047B9030008AFF30080C8
:1001C000080400200648804706480047FEE7FEE78F
:1001D000FEE7FEE7FEE7FEE7FEE7FEE7FEE7FEE7F7
:1001E00051020008AD010008064C074D06E0E0682A
:1001F00040F0010394E8070098471034AC42F6D36E
:10020000FFF7D8FF280500084805000800BFFEE7F3
:10021000704700BFFEE700BFFEE7704710B500283B
:1002200007DA0A07140E054A00F00F031B1FD45407
:1002300003E00A07130E024A135410BD18ED00E044
:1002400000E400E07047704710B500F077F810BD8B
:1002500008B52D48006840F470002B4908602B4811
:10026000006840F00100294908602848083000680B
:1002700040F080002549083108600020009002E02D
:100280000098401C00904CF2503100988842F7D3FF
:100290001E480830006840F090001C490831086092
:1002A0000020009002E00098401C00904CF2503179
:1002B00000988842F7D315480830006820F0030002
:1002C00012490831086011480068114908400F4977
:1002D00008600846006820F48020086000200B4970
:1002E0000831086000BF0948083000680020002875
:1002F000F9D108480549091D0860002003490C315F
:10030000086000F0E5F808BD88ED00E00038024024
:10031000FFFFF6FE1030002400BFFEE702E008C831
:10032000121F08C1002AFAD170477047002001E06F
:1003300001C1121F002AFBD1704700000448006869
:1003400020B103480068401E014908607047000062
:10035000000000201648006840F0080014490860BA
:100360001448006820F440401249086008460068BC
:1003700040F4804008600F480C30006820F4404092
:100380000C490C3108600B48001D006820F080000B
:100390000849091D0860081D006820F44040091D37
:1003A00008600846006840F400400860704700009C
:1003B00030380240000C024000F08EF8FFF7CAFF10
:1003C0000348006840F080000149086000BFFEE774
:1003D000180C0240002000213A4A126842F4803290
:1003E000384B1A6000BF401C364A126802F40031D4
:1003F00019B94FF6FF729042F5D1324A126802F4F1
:1004000000320AB900BFFEE72E4A4032126842F0BD
:1004100080522C4B40331A602B4A126842F44042FF
:10042000294B1A60274A08321268264B08331A6093
:100430001A46126842F400421A601A46126842F4E0
:10044000A0521A60214A1B1F1A601A1F126842F03C
:1004500080721B1F1A6000BF1A4A126802F00072F5
:10046000002AF9D0184A126842F48032164B1A60FA
:1004700000BF154A526802F48032002AF9D0124AAD
:10048000126842F40032104B1A6000BF0E4A5268E4
:1004900002F40032002AF9D00A4A0832126822F027
:1004A0000302084B08331A601A46126842F002022F
:1004B0001A6000BF034A0832126802F00802002ADC
:1004C000F8D0704700380240007000401978400AA8
:1004D00010B5FFF77FFF10BD10B5124800684FF44C
:1004E0007A71B0FBF1F4601EB0F1807F01D301207E
:1004F0000FE0601E4FF0E02148610F214FF0FF3008
:10050000FFF78CFE00204FF0E02188610720086192
:10051000002008B100BFFEE70021481EFFF77EFE65
:1005200010BD000004000020480500080000002065
:10053000080000001C030008500500080800002007
:10054000000400002C03000800000000001C4E0EF8
:04000005080001AD41
:00000001FF
