:020000040800F2
:1000000010140020C5010008CD020008C502000838
:10001000C90200085D020008790400080000000021
:10002000000000000000000000000000FB020008CB
:100030006102000800000000F9020008FD0200084B
:10004000DF010008DF010008DF010008DF01000810
:10005000DF010008DF01000865020008DF01000879
:10006000DF010008DF010008DF010008DF010008F0
:10007000DF010008DF010008DF010008DF010008E0
:10008000DF010008DF010008DF010008DF010008D0
:10009000DF010008DF010008DF010008DF010008C0
:1000A000DF010008DF010008DF010008DF010008B0
:1000B000DF010008DF010008DF010008DF010008A0
:1000C000DF010008DF010008DF010008DF01000890
:1000D000DF01000815040008DF010008DF01000847
:1000E000DF010008DF010008DF010008DF01000870
:1000F000DF010008DF010008DF010008DF01000860
:10010000DF010008DF010008DF010008DF0100084F
:10011000DF010008DF010008CD030008DF0100084F
:10012000DF010008DF010008DF010008DF0100082F
:10013000DF010008DF010008DF010008DF0100081F
:10014000DF010008DF010008DF010008DF0100080F
:10015000DF010008DF010008DF010008DF010008FF
:10016000DF010008DF010008DF010008DF010008EF
:10017000DF010008DF010008DF01000800000000C7
:10018000DF010008DF010008DF010008DF010008CF
:10019000DF010008DF010008DF01000800000000A7
:1001A000DF010008DF010008DF010008DFF810D0E0
:1001B00000F042F80048004711090008AFF3008042
:1001C000101400200648804706480047FEE7FEE777
:1001D000FEE7FEE7FEE7FEE7FEE7FEE7FEE7FEE7F7
:1001E00005030008AD010008D2B201E000F8012BC0
:1001F000491EFBD270470022F6E710B513460A46A7
:1002000004461946FFF7F0FF204610BD30B50B46F7
:10021000014600202022012409E021FA02F59D4236
:1002200005D303FA02F5491B04FA02F52844151E0A
:10023000A2F10102F1DC30BD064C074D06E0E0689A
:1002400040F0010394E8070098471034AC42F6D31D
:10025000FFF7B0FFB0110008D011000800BFFEE7A3
:100260007047000010B5012000F07CFA012813D17E
:1002700001210A4800F0C1FA012807D1802108486D
:1002800000F0B9FA07A000F0F9F802E009A000F0C8
:10029000F5F8012000F060FA10BD000000000240F7
:1002A000000C02406B6579207072657373210D0A32
:1002B000000000006B65792072656C6561736521D3
:1002C0000D0A000000BFFEE700BFFEE77047000018
:1002D00010B5002807DA0A07140E054A00F00F03CC
:1002E0001B1FD45403E00A07130E024A135410BD17
:1002F00018ED00E000E400E07047704710B500F032
:10030000B9F910BD08B52D48006840F470002B49BC
:1003100008602B48006840F001002949086028481F
:100320000830006840F0800025490831086000204E
:10033000009002E00098401C00904CF25031009870
:100340008842F7D31E480830006840F090001C49EE
:10035000083108600020009002E00098401C0090E6
:100360004CF2503100988842F7D3154808300068A5
:1003700020F0030012490831086011480068114953
:1003800008400F4908600846006820F48020086093
:1003900000200B490831086000BF09480830006898
:1003A00000200028F9D108480549091D08600020EF
:1003B00003490C31086000F0F5FC08BD88ED00E051
:1003C00000380240FFFFF6FE1030002410B5012176
:1003D000084800F016FD01280AD10121054800F067
:1003E0000DFD8021044800F006FA04A000F046F854
:1003F00010BD000000100040000C02404253505F4E
:1004000054494D45525F49525148414E444C455222
:10041000210D0A0010B51249124800F074FE01289F
:100420000BD1104800F06EFDC1B20F480288008861
:10043000401C0D4B18800D4881540D49094800F0AF
:1004400062FE01280AD1074800F05CFD0020074940
:10045000054A1288885401200649087010BD000022
:1004600005030500001001400800002010000020D6
:10047000040304000A00002000BFFEE70FB4054B90
:1004800010B503A9044A029800F018F810BC5DF8F2
:1004900014FB0000890700080C00002002E008C8D7
:1004A000121F08C1002AFAD170477047002001E0EE
:1004B00001C1121F002AFBD1704700002DE9FF4F38
:1004C0008BB09A460F460546002606E025280BD03D
:1004D00052460D9990476D1C761C28780028F5D15E
:1004E0000FB03046BDE8F08F0024A04601226049DD
:1004F00000E0044315F8013F203B02FA03F00842F4
:10050000F7D128782E2817D115F8010F44F00404EC
:100510002A280ED06FF02F022878A0F13001092987
:100520000AD808EB880102EB410100EB01086D1CC1
:10053000F2E757F8048B6D1C287869283ED006DC5A
:100540000028CDD063280BD0642804D136E073286E
:1005500010D075284BD052460D999047761C85E0F7
:1005600017F8040B8DF8000000208DF80100E94613
:10057000012003E057F8049B4FF0FF3061074FF074
:10058000000401D40AE0641C44450DDA8442FADB1D
:1005900019F804100029F6D106E0641C8442FCDB43
:1005A00019F804100029F8D1264404E019F8010BC9
:1005B00052460D999047641EF8D257E001CF4FF094
:1005C0000A0B002802DA40422D2102E0210504D561
:1005D0002B218DF82410012103E0E10705D0202113
:1005E000F7E70DF1200908910CE00021F9E701CFB0
:1005F0004FF00A0BF9E75946FFF708FE01F1300208
:1006000009F8012D0028F6D1ADEB090000F1200B0F
:10061000600701D44FF00108D84502DDA8EB0B00BC
:1006200000E000208046002406E009A85246005D54
:100630000D999047641C761C08988442F5DB04E011
:10064000302052460D999047761CB8F10001A8F170
:100650000108F5DC05E019F8010B52460D999047A9
:10066000761CBBF10001ABF1010BF4DC6D1C34E72F
:10067000092801000448006820B103480068401EB2
:1006800001490860704700000000002010B52D4BA4
:100690001B6883432B4C2360231D1B688343241D4D
:1006A0002360231D1B688343241D2360231D1B68B7
:1006B0008343241D236011B101290ED105E0214B94
:1006C0001B6803431F4C236008E01E4B1B1D1B6867
:1006D00003431C4C241D236000E000BF00BF32B167
:1006E000012A11D0022A1CD0032A27D127E0154B5A
:1006F00008331B680343134C08342360231D1B6815
:100700008343241D23601BE00E4B08331B68834387
:100710000C4C08342360231D1B680343241D2360F5
:100720000EE0084B08331B680343064C0834236073
:10073000231D1B680343241D236001E000BF00BF8D
:1007400000BF10BD003C0140024909680143014A55
:1007500011607047003C014001490860704700008B
:10076000143C014001460748006800EA01020548C0
:100770001438006800EA010312B10BB10120704780
:100780000020FCE7143C014070B504460D46E0B281
:1007900000F0E6FC204670BDF0B503461C6A5D6AB9
:1007A00000200DE00126864016403EB187000F264E
:1007B000BE40B443860001FA06F63443461CB0B28C
:1007C0000828EFD3082011E00126864016405EB1CC
:1007D000A0F10806B7000F26BE40B543A0F10806F9
:1007E000B60001FA06F63543461CB0B21028EBD32A
:1007F0001C625D62F0BDC16270470246106908402C
:1008000008B1012070470020FCE7F0B504460D4612
:1008100016462168E268002019E0012787401F4042
:100820009FB14FEA400C032707FA0CF7B943470082
:1008300005FA07F739434FEA400C032707FA0CF78C
:10084000BA43470006FA07F73A43471CB8B21028E4
:10085000E3D32160E260F0BDF0B50C461546012CF3
:1008600003D146681E43466002E046689E434660E8
:10087000826800210DE001268E401E403EB14F00EF
:100880000326BE40B2434E0005FA06F632434E1C24
:10089000B1B21029EFD38260F0BD000010B54FF463
:1008A000406000F075F941F20E1000F071F901237B
:1008B000022200210B48FFF7A8FF03221146062061
:1008C00000F068F80021084600F098F902220021A3
:1008D0000120FFF7DBFE0120FFF736FF0120FFF7C5
:1008E0003BFF10BD0000024010B540F6034000F091
:1008F0004FF98023002201210448FFF786FF80235F
:10090000022200210148FFF7A7FF10BD000C0240A2
:100910004FF4A06000F0A0F800F048FAFFF7E4FF01
:10092000FFF7BCFF4FF4165000F078FB16E00C48C0
:10093000007898B100200A4908700A4801880AA086
:10094000FFF79CFD0D490EA0FFF798FD05480188B3
:100950000A48FFF750FC002002490880E7E7000042
:100960000A00002008000020675F726563765F6CF4
:10097000656E6774683A256420000000100000204E
:10098000675F726563765F627566663A25730D0A06
:10099000000000002DE9F04103460D4616460024F4
:1009A0000027A0462A48006800F4E060B0F5E06F38
:1009B00003D100BF4FF0040830E02548006800F480
:1009C000E060B0F5C06F03D101274FF0030825E0C8
:1009D0001F48006800F4E060B0F5A06F02D1022764
:1009E000B8461BE01A48006800F4E060B0F5806F7C
:1009F00003D103274FF0010810E01548006800F408
:100A0000E060B0F5407F03D104274FF0000805E017
:100A10004FF4A06000F020F80227B846C7F10400A8
:100A200005FA00F4C8F104010F20C8403040044327
:100A300024010848C45403F01F01012088405911C3
:100A4000890001F1E021C1F80001BDE8F08100005A
:100A50000CED00E000E400E002490143024A1160AD
:100A6000704700000000FA050CED00E02DE9F04FA2
:100A70008CB0064600200A903EA090E8004CC0686A
:100A8000CDE905BECDF810A007900FF2EC0ADAE927
:100A9000000ACDE9020A0FF2E00ADAE9000ACDE91C
:100AA000000A38480068C0F381000B900B9820B111
:100AB000012804D0022828D103E0334927E0334934
:100AC00025E03048001F006800F03F072D48001F58
:100AD0000068C0F3881C2B48001F0068C0F3014069
:100AE000401C4FEA40092748001F006800F48008B6
:100AF000B8F5800F01D1254B00E0234BB3FBF7F095
:100B000000FB0CF0B0FBF9F101E01F4900BF00BF92
:100B10001C480068C0F3031404A8055D21FA05F21F
:100B200018480068C0F3822402A8055D22FA05F087
:100B3000099014480068C0F342341DF8045022FAAA
:100B400005F0089036B1012E06D0022E06D0032EF5
:100B50000AD106E00A9108E00A9206E009980A9094
:100B600003E008980A9000E000BF00BF0A980CB0AC
:100B7000BDE8F08F00000000000000000102030447
:100B800006070809083802400024F40040787D0177
:100B9000074A02EB9011D1F8001800F01F03012260
:100BA0009A401143024B03EB9012C2F800187047B1
:100BB00000300240074A02EB9011D1F8001800F013
:100BC0001F0301229A409143024B03EB9012C2F89B
:100BD0000018704700300240074A02EB9011D1F82C
:100BE000001800F01F0301229A401143024B03EB4F
:100BF0009012C2F8001870470030024070B50446E9
:100C00000B46CD1701EB9575AD10A1EB8505AE0038
:100C10000F25B540E843CD1701EB9575AD10A1EB5D
:100C20008505AD0004FA05F2CD1701EB9575AD1001
:100C300035B1012D0ED0022D18D0032D2ED121E07B
:100C4000184B1B680340174D2B602B461B68134342
:100C50002B6024E0134B1B1D1B680340114D2D1D01
:100C60002B602B461B6813432B6018E00D4B083399
:100C70001B6803400B4D08352B602B461B68134344
:100C80002B600CE0074B0C331B680340054D0C3503
:100C90002B602B461B6813432B6000E000BF00BF96
:100CA00070BD000008380140002000213A4A126857
:100CB00042F48032384B1A6000BF401C364A12683A
:100CC00002F4003119B94FF6FF729042F5D1324A61
:100CD000126802F400320AB900BFFEE72E4A403221
:100CE000126842F080522C4B40331A602B4A126833
:100CF00042F44042294B1A60274A08321268264BB8
:100D000008331A601A46126842F400421A601A4602
:100D1000126842F4A0521A60214A1B1F1A601A1F5F
:100D2000126842F080721B1F1A6000BF1A4A1268D4
:100D300002F00072002AF9D0184A126842F4803298
:100D4000164B1A6000BF154A526802F48032002A1E
:100D5000F9D0124A126842F40032104B1A6000BFF8
:100D60000E4A526802F40032002AF9D00A4A0832C8
:100D7000126822F00302084B08331A601A46126800
:100D800042F002021A6000BF034A0832126802F001
:100D90000802002AF8D07047003802400070004076
:100DA0001978400A10B5FFF77FFF10BD10B5124843
:100DB00000684FF47A71B0FBF1F4601EB0F1807FEF
:100DC00001D301200FE0601E4FF0E02148610F21A8
:100DD0004FF0FF30FFF77CFA00204FF0E0218861F0
:100DE00007200861002008B100BFFEE70021481E6F
:100DF000FFF76EFA10BD000004000020CA43026134
:100E000070470246D06800EA01031069084010B13B
:100E10000BB1012070470020FCE700002DE9F047EE
:100E200004460D460027B846B94600263349601AE5
:100E30008C4235D00CDC32482044E8B1B0F5806FEC
:100E40001FD0B0F5006F21D0B0F5406F32D122E055
:100E5000B0F5806F29D0B0F5184F03D0B0F51C4F16
:100E600028D104E00320FFF701FE074623E003201A
:100E7000FFF7FCFD07461EE00220FFF7F7FD0746DF
:100E800019E00220FFF7F2FD074614E00220FFF709
:100E9000EDFD07460FE00220FFF7E8FD07460AE0F8
:100EA0000220FFF7E3FD074605E00220FFF7DEFD25
:100EB000074600E000BF00BFE06800F4004070B1EA
:100EC000780000EB5500B0FBF5F64FF6F07006EA3F
:100ED0000008C6F3420948EA0900A0600CE007EBED
:100EE0005500B0FBF5F64FF6F07006EA000806F084
:100EF0000F0948EA0900A060BDE8F08700780040CB
:100F000000BCFFBF01464868C0F308007047C1F34A
:100F1000080242607047000010B504463349601A69
:100F20008C424DD00CDC32482044E0B1B0F5806FEB
:100F300022D0B0F5006F31D0B0F5406F52D136E01D
:100F4000B0F5806F45D0B0F5184F03D0B0F51C4F09
:100F500048D11AE040F60410FFF73EFE40F60410B8
:100F6000FFF728FE3FE040F61100FFF735FE40F6A0
:100F70001100FFF71FFE36E040F61200FFF72CFECF
:100F800040F61200FFF716FE2DE040F60510FFF7C1
:100F900023FE40F60510FFF70DFE24E040F6130097
:100FA000FFF71AFE40F61300FFF704FE1BE040F6C1
:100FB0001400FFF711FE40F61400FFF7FBFD12E0EE
:100FC00040F61E00FFF708FE40F61E00FFF7F2FD98
:100FD00009E040F61F00FFF7FFFD40F61F00FFF796
:100FE000E9FD00E000BF00BF10BD00000078004038
:100FF00000BCFFBFC16841F40051C160704710B52B
:10100000024602EB9110006801F01F040123A34087
:10101000184008B1012010BD0020FCE710B50446BF
:101020004FF44060FFF7B4FD4FF44060FFF7B0FDB0
:1010300041F20410FFF7ACFD4FF40072072129487C
:10104000FFF7AAFB4FF4806207212648FFF7A4FBB5
:101050004FF40073012202212248FFF7D6FB4FF420
:101060008063012202211F48FFF7CFFB4FF400737A
:10107000022200211B48FFF7EFFB4FF4806302229E
:1010800000211848FFF7E8FB1748FFF745FF214606
:101090001548FFF7C3FE0021134800F050F8002167
:1010A000114800F07DF800210F4800F069F80E4863
:1010B000FFF7A0FF08210C4800F06AF804210A4855
:1010C00000F045F8022211462520FFF763FC40F2AC
:1010D0000531054800F00AF84FF44171024800F06C
:1010E00005F810BD000002400010014010B500EBF3
:1010F0009112126801F01F040123A3401A4300EB70
:1011000091131A6010BD70B5024600230024C1F38C
:101110008910105801F01F060125B54000EA0503AB
:1011200002EB91500068C1F304460125B54000EA86
:10113000050414B10BB1012070BD0020FCE7C268AA
:1011400022F4C062C260C2680A43C26070470A46A5
:101150000021C16821F004011143C1607047000003
:1011600010B5044621460548FFF7D1FE00BF072110
:101170000248FFF744FF0028F9D010BD00100140DD
:10118000026922F44052026102690A430261704717
:101190000A460021C16821F008011143C16070476F
:1011A000C26822F48052C260C2680A43C2607047BB
:1011B000D011000800000020100000009C0400086E
:1011C000E01100081000002000140000AC0400082A
:1011D00000000000001C4E0E000000000000000097
:04000005080001AD41
:00000001FF
